:020000040800F2
:100000007806002029020008D9040008DB04000853
:10001000DF040008E3040008E70400080000000013
:10002000000000000000000000000000EB040008D9
:10003000ED04000800000000EF040008F1040008CF
:10004000430200084302000843020008430200087C
:10005000430200084302000843020008430200086C
:10006000430200084302000843020008430200085C
:10007000430200084302000843020008430200084C
:10008000430200084302000843020008430200083C
:10009000430200084302000843020008430200082C
:1000A000430200084302000843020008430200081C
:1000B000430200084302000843020008430200080C
:1000C00043020008430200084302000843020008FC
:1000D00043020008430200084302000843020008EC
:1000E00043020008430200084302000843020008DC
:1000F00043020008430200084302000843020008CC
:1001000043020008430200084302000843020008BB
:1001100043020008430200084302000843020008AB
:10012000430200084302000843020008430200089B
:10013000430200084302000843020008430200088B
:10014000430200084302000843020008430200087B
:10015000430200084302000843020008430200086B
:10016000430200084302000843020008430200085B
:10017000430200084302000843020008430200084B
:10018000430200084302000800F002F800F03CF8C7
:100190000AA090E8000C82448344AAF10107DA45E2
:1001A00001D100F031F8AFF2090EBAE80F0013F0F8
:1001B000010F18BFFB1A43F001031847B4030000F6
:1001C000D4030000103A24BF78C878C1FAD8520787
:1001D00024BF30C830C144BF04680C6070470000C1
:1001E0000023002400250026103A28BF78C1FBD840
:1001F000520728BF30C148BF0B6070471FB500F0E1
:10020000B2F91FBD10B510BD00F076F91146FFF729
:10021000F5FF00F03FF900F094F903B4FFF7F2FFA7
:1002200003BC00F099F900000948804709480047DD
:10023000FEE7FEE7FEE7FEE7FEE7FEE7FEE7FEE796
:10024000FEE7FEE704480549054A064B70470000F3
:100250004303000889010008780000207806002088
:1002600078020020780200200CB500200190009058
:100270007548006840F480307349086000BF7248D8
:10028000006800F4003000900198401C0190009834
:1002900018B90198B0F5A06FF1D16B48006810F45F
:1002A000003F02D00120009001E000200090009863
:1002B000012845D164484030006840F080506249D0
:1002C000403108606148006840F480405F49086040
:1002D0005D48083000685C490831086008460068DD
:1002E00040F4004008600846006840F4A0500860F0
:1002F0005748091F0860081F006840F08070091FF8
:10030000086000BF5048006810F0007FFAD040F24B
:100310000560504908604C480830006820F0030030
:100320004949083108600846006840F0020008604A
:1003300000BF45480830006800F00C000828F8D1DC
:100340000CBD10B54448006840F470004249086094
:100350003D48006840F001003B49086000203A49F0
:1003600008310860384800683C4908403649086050
:100370003B48091D0860081F006820F48020091F01
:100380000860002030490C310860FFF76DFF4FF026
:10039000006031498039086010BD70B5002000222E
:1003A000022300240221284D08352D6805F00C0099
:1003B00020B1042806D0082834D107E0294D2A4E60
:1003C000356033E0294D284E35602FE01E4D2D1D40
:1003D0002D68C5F380541C4D2D1D2D6805F03F017F
:1003E00054B1224DB5FBF1F5174E361D3668C6F3F4
:1003F000881605FB06F209E01A4DB5FBF1F5124E21
:10040000361D3668C6F3881605FB06F20E4D2D1D07
:100410002D68C5F301456D1C6B00B2FBF3F5124E60
:10042000356003E00F4D104E356000BF00BF064D34
:1004300008352D68C5F303150D4E705D0A4D2D6806
:10044000C540094E356070BD003802400070004064
:1004500008544007003C024088ED00E0FFFFF6FE34
:10046000103000240024F4000000002000127A0064
:100470000400002001B507E0DDED000AF8EE600A97
:100480009FED111A20EE810A0098411E009100286C
:10049000F2D108BD0D48006840F008000B49086023
:1004A0000B48006840F0AA40094908600AE0084883
:1004B0001430006880F47040054914310860054824
:1004C000FFF7D8FFF3E70000D80F4940303802406B
:1004D000000C0240404B4C00704700BFFEE700BFDD
:1004E000FEE700BFFEE700BFFEE7704770477047BA
:1004F0007047704770477047754600F029F8AE4660
:1005000005006946534620F00700854618B020B51F
:10051000FFF798FEBDE820404FF000064FF00007BF
:100520004FF000084FF0000B21F00701AC46ACE89B
:10053000C009ACE8C009ACE8C009ACE8C0098D4608
:1005400070470446AFF300802046FFF766FE0000C8
:10055000004870471400002001491820ABBEFEE798
:100560002600020070474FF04070E1EE100A70471D
:10057000900500080000002014000000C4010008DD
:10058000A40500081400002064060000E001000833
:10059000007A030A000000000000000001020304CA
:0405A0000607080939
:040000050800018965
:00000001FF
