:020000040800F2
:10000000C007002041020008FD080008FF080008A2
:1000100001090008030900080509000800000000A4
:1000200000000000000000000000000007090008B8
:1000300009090008000000000B0900081905000864
:100040005B0200085B0200085B0200085B0200081C
:100050005B0200085B0200085B0200085B0200080C
:100060005B0200085B0200085B0200085B020008FC
:100070005B0200085B0200085B0200085B020008EC
:100080005B0200085B0200085B0200085B020008DC
:100090005B0200085B0200085B0200085B020008CC
:1000A0005B0200085B0200085B0200085B020008BC
:1000B0005B0200085B0200085B0200085B020008AC
:1000C0005B0200085B0200085B0200085B0200089C
:1000D0005B0200085B0200085B0200085B0200088C
:1000E0005B0200085B0200085B0200085B0200087C
:1000F0005B0200085B0200085B0200085B0200086C
:100100005B0200085B0200085B0200085B0200085B
:100110005B0200085B0200085B0200085B0200084B
:100120005B0200085B0200085B0200085B0200083B
:100130005B0200085B0200085B0200085B0200082B
:100140005B0200085B0200085B0200085B0200081B
:100150005B0200085B0200085B0200085B0200080B
:100160005B0200085B0200085B0200085B020008FB
:100170005B0200085B0200085B0200085B020008EB
:100180005B0200085B02000800F002F800F049F88A
:100190000AA090E8000C82448344AAF10107DA45E2
:1001A00001D100F03EF8AFF2090EBAE80F0013F0EB
:1001B000010F18BFFB1A43F001031847AC7C000085
:1001C000CC7C0000103A24BF78C878C1FAD8520716
:1001D00024BF30C830C144BF04680C6070470000C1
:1001E0000023002400250026103A28BF78C1FBD840
:1001F000520728BF30C148BF0B607047662905F021
:100200000680002070471FB504F0F7FF03F046FF9B
:1002100004000020002104F08FFCE0601FBD10B539
:1002200010BD04F03BF81146FFF7EDFF00F075F943
:1002300004F059F803B4FFF7F2FF03BC04F09AF896
:100240000948804709480047FEE7FEE7FEE7FEE76A
:10025000FEE7FEE7FEE7FEE7FEE7FEE704480549A6
:10026000054A064B70470000290300088901000871
:10027000C0010020C0070020C0030020C0030020F0
:100280000CB50022019200925849086840F4803071
:1002900008604FF4A063086800F4003000900198F3
:1002A000401C0190009810B901989842F3D1086859
:1002B000800302D50120009000E000920098012800
:1002C00031D14A484030026842F0805202604848CA
:1002D000026842F4804202604448083002680260CA
:1002E000026842F400420260026842F4A0520260D6
:1002F000021F404B13600A6842F080720A600A686D
:100300009201FCD53C4A40F205611160016821F080
:1003100003010160016841F0020101600168C1F35D
:1003200081010229FAD10CBD10B53448016841F4AD
:10033000700101602D48016841F0010101602B4A04
:1003400000210832116002682D4B1A400260031D23
:100350002C4A1A60026822F48022026023480C3082
:100360000160FFF78DFF25494FF00060803908607C
:1003700010BD70B51D4E0836306800F00C00224BE1
:10038000224900280FD05D1004280ED008280ED076
:100390000B6030681D4AC0F30310121D105C0A6820
:1003A000C2400A6070BD0B60F3E70D60F1E70F4AD1
:1003B000121D1068C0F38054106800F03F0034B183
:1003C000B5FBF0F01368C3F38813584305E0B3FBA3
:1003D000F0F01368C3F3881358431268C2F3014264
:1003E000521C5200B0FBF2F00860D2E70038024025
:1003F0000070004008544007003C024088ED00E0D7
:10040000FFFFF6FE103000240024F400000000205E
:100410001CB50121084600F09AFEE0200090022061
:100420008DF8050000208DF8040001208DF80700EC
:100430006946FE4800F0C0FC1CBD2DE9F041FB4FB1
:100440004021384600F00CFD0025F94C012610B380
:1004500066708021384600F003FD40B3A67020216D
:10046000384600F0FDFC70B32571E67020784FF03F
:100470008045012835D002283CD0032843D00428E9
:1004800007D100210922084600F008FCB4F9080051
:100490006862BDE8F08160780128DAD1207808B977
:1004A000052020702178491E21706570D1E7A07861
:1004B0000128D4D12078401CC1B22170052900D177
:1004C0002570A570CBE7FFE7E0780128CED1207931
:1004D000401CC0B220711E28C8D966712571E57014
:1004E000C4E700211E22084600F0D8FBB4F90A0038
:1004F0006862CEE700216322084600F0CFFBB4F922
:100500000C006862C5E700210522084600F0C6FB22
:10051000B4F906006862BCE78FE72DED068B88B062
:10052000FFF702FFFFF774FF0121080700F033FE19
:1005300002A800F0A1FD4FF0E020BE494161BE4A93
:10054000F0214FF00F08117000258561072101612E
:100550000121182000F0FBFD4FF6FF7006900227E6
:100560008DF81D7001208DF81C008DF81F0006A964
:10057000B24800F021FC06A9B14800F01DFCB14AC8
:10058000B149B24802F068FDB04802F038FE40249C
:10059000002280231146AD48009403F0BAF8AC491C
:1005A000AA4802F0D7FBABA30E223221A74802F0E3
:1005B00014F9A9A31B222221A44802F00EF9A8498C
:1005C000A24802F0C7FBA7A3322217219F4802F0DE
:1005D00004F99E4802F015FE0028D9D14CF25030A3
:1005E00000F0B0F9924C4FF080494FF0030A3C26DE
:1005F0009FED9FAB9FEDA09B944802F000FE2078FA
:10060000052878D2DFE800F0032334496100CDE902
:1006100000871823282215218C4803F053F9002164
:100620008A4802F0D8FC96A334221921874802F0A8
:10063000D4F80121854802F0CEFC607901285AD116
:1006400090A332223C21814802F0C7F853E00C23EA
:10065000112208217D4803F02DF80C2312220821D5
:100660007A4803F027F800F025FB6081657142E0CD
:100670000C2311221721754803F01CF80C231222B9
:100680001721724803F016F800F014FBA08160896E
:100690001E2800D1A58165712DE00C231D220821A3
:1006A0006A4803F007F80C231E220821674803F06C
:1006B00001F800F0FFFA00B2E080052803DD052014
:1006C000E080C9F82400657115E00C231D22172174
:1006D0005E4802F0EFFF0C231E2217215B4802F058
:1006E000E9FF00F0E7FA2081E088052802D12581A2
:1006F000C9F824506571CDE9006A022234231146FD
:10070000524803F063F8CDE9006A462302223821FB
:100710004E4803F05BF8B4F90C0004F0FDFAB0EEBB
:100720004A1AF0EE6A1A53EC112B04F00DFB41EC5F
:10073000180BB4F90A0004F0EFFA53EC182B04F08C
:1007400043FA04F00FFA83462061B4F9080004F07C
:10075000E3FAB0EE491AF0EE691A53EC112B04F0EB
:10076000F3FA41EC180BB4F9060004F0D5FA53EC97
:10077000182B04F029FA04F0F5F96061584604F0EA
:10078000CBFC41EC100B2A4853EC102B3EA1183047
:1007900003F076F9606904F0BFFC41EC100B2448CB
:1007A00053EC102B3BA11D3003F06AF93C4927485C
:1007B00002F0D0FA1E4B102218330821234802F011
:1007C0000CF81B4B1C221D330821204802F005F8B1
:1007D000207868B1CDE900871823282215211B480D
:1007E00002F0F4FF26A334221921184801F0F5FF86
:1007F000262322220821154802F05CFF252323220C
:100800000921124802F056FF2649104802F0A2FAC8
:1008100025A314223C210D4801F0DFFF24A324224C
:100820003C210A4801F0D9FF3C2345E0000002408A
:1008300014000020FF44330023ED00E0000C0240D0
:10084000001002401B0B00088400002090000020D4
:100850003F6300085049430050524F4A4500000092
:10086000875C0008636F6D6D756E697479000000B8
:100870007B14AE47E17A843F9A9999999999B93F47
:100880004F4B0000310000002530352E32662056D7
:10089000000000002530352E3266204100000000A7
:1008A00012520008B96A000833302E34372056003F
:1008B00030342E3437204100262219460B4802F0EE
:1008C000F9FE0B49094802F045FA0AA332225221E7
:1008D000064801F082FF054802F093FC00287FF4EF
:1008E0008EAE642000F02EF886E600009000002016
:1008F0001252000830342E34375700007047FEE79C
:10090000FEE7FEE7FEE7704770477047400000E0F3
:1009100000BF401EFCD2704770B50821B04B0124C7
:1009200002229E1E08E01A80050601D5348000E0F0
:100930001C804006000E32800D00A1F10101C9B2F9
:10094000F1D170BD4FF47A714843DFE70120DDE754
:100950000A20DBE700010844C0B27047010900F03B
:100960000F00012202FA00F39E4803600271002288
:100970008271C271022242710A290DD00B290FD057
:100980000C2911D00D2914D00E2916D00F2918D1F9
:100990000146954800F010BA9249944800F00CBA0C
:1009A0009049934800F008BA8D488E491A3800F0F3
:1009B00003BA8C498F4800F0FFB98A498E4800F08D
:1009C000FBB97047010900F00F00012202FA00F3A1
:1009D0008448036000230371C2710A290DD00B29DA
:1009E0000FD00C2911D00D2914D00E2916D00F29A3
:1009F00018D101467C4800F0DFB97A497B4800F005
:100A0000DBB978497A4800F0D7B9754875491A3882
:100A100000F0D2B97349774800F0CEB971497648F1
:100A200000F0CAB9704710B500F00F0301229A40D8
:100A300092B200096D4B704C00291FD00A280DD0CE
:100A40000B280DD00C280FD00D2811D00E2813D054
:100A50000F2802D164481830028010BD1A8310BDDF
:100A600063481830028010BD5D48801E028010BDB2
:100A700060481830028010BD228310BD0A280DD0B6
:100A80000B280DD00C280FD00D2810D00E2812D016
:100A90000F28F2D154481A30028010BD5A8310BD7D
:100AA00053481A30028010BD4D48028010BD514895
:100AB0001A30028010BD628310BD00F00F020121C8
:100AC000914089B200090A280BD00B280DD00C28C0
:100AD00010D00D2813D00E2816D00F2818D00120C2
:100AE000704742480069084070474148103000682C
:100AF000084070473A480A380068084070473D4847
:100B000010300068084070473B4800690840704753
:100B1000354810300068084070472DE9F0411C4608
:100B2000344EDFF8D4801836B51C2F15082954D25E
:100B3000DFE801F05353040E202A41514FF4807036
:100B4000012A03D02880FFF701FF46E03080FAE752
:100B50004FF480504110012A06D0022A07D0288085
:100B60002980FFF7F3FE38E030802980F9E73180F3
:100B70002880F6E74FF40050012A03D02880FFF7C1
:100B8000E7FE2AE03080FAE76920FFF7BFFEC8F8E9
:100B900014203780FFF7DAFE2F801EE06920FFF770
:100BA000B5FE14F8010BC8F814003780FFF7CEFE2D
:100BB0002F80521ED2B2002AF0D10EE06920FFF73A
:100BC000A5FE14F8010BC8F814003780FFF7BEFE2D
:100BD0002F80521ED2B2002AF0D10120BDE8F08150
:100BE0001A080240380000200014024000000240B1
:100BF00000040240000C02400010024070B50446A0
:100C00000E4615460121084600F0C5FAA4B1012C94
:100C100014D00321A6B102224FF0804400232046C5
:100C200001F0B7F82946204600F07AFC2046BDE8DE
:100C30007040012100F0AEBC0121EBE70221E9E7A1
:100C40000022E9E72DE9FC4700251E4E00274FF062
:100C500001084FF002094FF0030A05EB850006EB8F
:100C600080040121E06800F072FA208900908DF87C
:100C700004908DF805A08DF806708DF80780694600
:100C8000606800F099F8217C0122606800F00CF99E
:100C90006D1CEDB2022DE0D3BDE8FC8770B50446B3
:100CA0000D461646FFF7CEFF324629462046BDE8E0
:100CB0007040A3E710B54FF0804000F033FC80B2E5
:100CC00010BD00004000002010B57F49884209D1C6
:100CD0000121084600F077FA0021BDE8104001200C
:100CE00000F071BA7949884209D10121022000F04F
:100CF0006AFA0021BDE81040022000F064BA74498D
:100D0000884209D10121042000F05DFA0021BDE8EC
:100D10001040042000F057BA6E49884209D10121E1
:100D2000082000F050FA0021BDE81040082000F033
:100D30004ABA6949884209D10121102000F043FADA
:100D40000021BDE81040102000F03DBA6349884200
:100D500009D10121202000F036FA0021BDE8104021
:100D6000202000F030BA5E49884209D1012140209C
:100D700000F029FA0021BDE81040402000F023BA1D
:100D80005849884209D10121802000F01CFA002135
:100D9000BDE81040802000F016BA534988420AD1BD
:100DA00084150121204600F00EFA2046BDE81040CF
:100DB000002100F008BA10BD2DE9F0410022012702
:100DC0004FF0030C07FA02F50B682B40AB422CD115
:100DD000066853000CFA03F4A64306600E79D0F8B7
:100DE00000809E4046EA080606600E79012E01D07A
:100DF000022E12D18668A64386604E79D0F808800C
:100E00009E4046EA080686604668AE4346604568EE
:100E10008E799640B6B235434560C568A543C56036
:100E2000CC799C40C3681C43C460521C102AC9D3AF
:100E3000BDE8F0814FF6FF71016000210171417141
:100E40008171C171704708B541F480320092009AF7
:100E5000C261C1610099C161C169C069009008BDEA
:100E60000246002012690A4200D001207047006942
:100E700080B270470246002052690A4200D0012029
:100E80007047406980B27047018370474183704763
:100E9000002A01D001837047418370474161704748
:100EA00042694A404261704710B54B07DB0E9A40D9
:100EB000C90800EB8100016A0F249C40A143016234
:100EC000016A1143016210BD0000024000040240AB
:100ED00000080240000C02400010024000140240D2
:100EE00000180240001C024000200240F84801683F
:100EF00041F001010160F64A0021083211600268E8
:100F0000F44B1A400260031DF34A1A60026822F48F
:100F100080220260EE480C3001607047EC490022EC
:100F2000891C0A7008707047024600205109012987
:100F30000CD002290DD0E6497431096802F01F0275
:100F4000012393400B4200D001207047E04909681B
:100F5000F4E7DF4970310968F0E718B50020009028
:100F60004FF4A0643120FFF7DFFF0099491C009186
:100F70000099A14201D00028F4D03120FFF7D4FF1E
:100F800008B1012018BD002018BDD14A116821F018
:100F9000F80141EAC00010607047D049086070470E
:100FA000CB49002270310A700A70012804D004284D
:100FB00001D1052008707047012008707047C849AA
:100FC0000860704710B5029C41EA82114FF0FF3271
:100FD00002EB530241EA0241014341EA0460BC4989
:100FE000091D086010BDBD4908667047800140EAD0
:100FF0000170B749843108607047B8498866704706
:10100000B649C8647047B24B08331A6822F0EC62E4
:101010000843104318607047AD4B08331A6822F03C
:1010200078420843104318607047A94A0832116893
:1010300021F00301014311607047A54808300068A2
:1010400000F00C007047A24A0832116821F0F0014C
:101050000143116070479E4A0832116821F4E05143
:101060000143116070479A4A0832116821F46041C7
:1010700041EAC0001060704770B5954B083319689D
:1010800001F00C01974C00291ED0661004291DD0D8
:1010900008291DD00460196801F0F0010909924A7D
:1010A000545C0168E14041601C6804F4E054A40A07
:1010B000145D21FA04F484601B6803F460435B0B45
:1010C000D25CD140C16070BD0460E4E70660E2E735
:1010D0007F4A121D1168C1F38055116801F03F016C
:1010E00035B1B6FBF1F11468C4F38814614305E02F
:1010F000B4FBF1F11468C4F3881461431268C2F3BD
:101100000142521C5200B1FBF2F10160C3E7C0F38F
:101110000121032908D16E4B0833196821F4F81214
:101120007249014011431960694A70321168C0F375
:101130000B000143116070476949443908607047EA
:101140006749403908607047694908607047604ADC
:101150003032002903D011680143116070471168D3
:101160008143116070475A4A3432002903D0116814
:101170000143116070471168814311607047544A00
:101180003832002903D0116801431160704711689B
:101190008143116070474E4A4032002903D01168E4
:1011A0000143116070471168814311607047484ADC
:1011B0004432002903D0116801431160704711685F
:1011C000814311607047424A1032002903D01168F0
:1011D00001431160704711688143116070473C4AB8
:1011E0001432002903D0116801431160704711685F
:1011F000814311607047364A1832002903D01168C4
:101200000143116070471168814311607047304A93
:101210002032002903D01168014311607047116822
:101220008143116070472A4A2432002903D0116893
:101230000143116070471168814311607047244A6F
:101240005032002903D011680143116070471168C2
:101250008143116070471E4A5432002903D011683F
:101260000143116070471168814311607047184A4B
:101270005832002903D0116801431160704711688A
:10128000814311607047124A6032002903D011680F
:1012900001431160704711688143116070470C4A27
:1012A0006432002903D0116801431160704711684E
:1012B000814311607047064A0D32002903D011782E
:1012C000014311707047117881431170704700001D
:1012D00000380240FFFFF6FE1030002400004742B5
:1012E000800E47420024F40068000020FFFCFF0F3E
:1012F0005C0147420948016841F080710160E5E7FF
:1013000001460020054A683A12680A42DED00120F0
:10131000DCE7024966390870D8E7000074380240FB
:1013200010B5F949884209D101210846FFF77BFF32
:101330000021BDE810400120FFF775BFB0F1804FDC
:101340000CD0F249884213D101210220FFF75FFF40
:101350000021BDE810400220FFF759BF01210846D7
:10136000FFF755FF0021BDE810400120FFF74FBFF8
:10137000E749884209D101210420FFF748FF0021F5
:10138000BDE810400420FFF742BFE249884209D17E
:1013900001210820FFF73BFF0021BDE81040082095
:1013A000FFF735BFDC49884209D101211020FFF742
:1013B0002EFF0021BDE810401020FFF728BFD749BD
:1013C000884209D101212020FFF721FF0021BDE83B
:1013D00010402020FFF71BBFD149884209D10121CD
:1013E0000220FFF720FF0021BDE810400220FFF798
:1013F0001ABFCC4988420AD101210C042046FFF7CC
:1014000012FF2046BDE810400021FFF70CBFC6497F
:1014100088420AD101214C042046FFF704FF2046F0
:10142000BDE810400021FFF7FEBEC04988420AD146
:1014300001218C042046FFF7F6FE2046BDE810404F
:101440000021FFF7F0BEBA49884209D101214020AE
:10145000FFF7DDFE0021BDE810404020FFF7D7BEBA
:10146000B449884209D101218020FFF7D0FE002134
:10147000BDE810408020FFF7CABEAF4988420AD1BC
:10148000841501212046FFF7C2FE2046BDE810402A
:101490000021FFF7BCBE10BD30B502889A4CA04DAC
:1014A000A0420DD0A8420BD0B0F1804F08D0974B8E
:1014B000984205D0964B984202D0964B984203D161
:1014C00022F070034A881A43934B984206D0934BFC
:1014D000984203D022F440730A891A4302804A6872
:1014E000C2620A880285A04201D0A84201D1897A4D
:1014F00001860121818230BD4FF0FF314160002122
:10150000018001814180817270470185828270472C
:10151000028822F070020A430280704741627047DD
:10152000C1627047406A7047008D7047002904D03F
:10153000018841F0020101807047018821F0020119
:1015400001807047002904D0018841F00401018026
:101550007047018821F0040101807047002904D000
:10156000018841F0800101807047018821F08001ED
:1015700001807047028822F00802028002880A4334
:1015800002807047028822F44072028002880A4377
:1015900002807047002904D0018841F001010180D8
:1015A0007047018821F001010180704730B5028C3D
:1015B00022F001020284058C8388028B22F07002E3
:1015C00022F003020C88144325F002028D89154392
:1015D0004A882A434C4DA84202D0514DA8420FD10F
:1015E00022F00805CA892A4322F004058A882A4382
:1015F00023F4807323F400730D8A1D434B8A2B431D
:101600008380048389684163028430BD70B5028C95
:1016100022F010020284028C8388048B24F4E044BC
:1016200024F440760D884FF6FF7404EA052535430F
:1016300022F020028E8904EA061616434A8804EA3C
:1016400002123243304EB04202D0354EB04217D172
:1016500022F08002CE8904EA0616164326F04006E0
:101660008A8804EA0212324323F4806323F400637D
:101670000E8A04EA86061E434B8A04EA8303334338
:101680008380058389688163028470BD70B5028C94
:1016900022F480720284028C8388848B24F070048C
:1016A00024F003040D88254322F400728E894FF63E
:1016B000FF7404EA062616434A8804EA02223243EB
:1016C000114EB04202D0164EB04217D122F400663D
:1016D000CA8904EA0222324322F480668A8804EA34
:1016E0000222324323F4805323F400530E8A04EA87
:1016F00006161E434B8A04EA031333438380858313
:101700008968C163028470BD00000140000400408C
:1017100000080040000C0040001000400014004091
:1017200000040140004001400044014000480140E5
:1017300000180040001C00400020004070B5028CE2
:1017400022F480520284058C8288838B23F4E04348
:1017500023F440760C884FF6FF7303EA04243443E5
:1017600025F400558E8903EA06362E434D8803EA98
:1017700005353543FE4EB04202D0FE4EB04205D193
:1017800022F480460A8A03EA8212324382808483EA
:10179000896801640584B6E7002101804180818069
:1017A00081608181C18101824182704730B500F141
:1017B000180301248C40058CA5430584002912D010
:1017C000082910D0091FC1F34E001844016848F6DB
:1017D000FF731940016001684FF6FF7303EA0222AC
:1017E0001143016030BD03EB510001684FF68F7368
:1017F0001940016001681143016030BD41637047C9
:1018000081637047C163704701647047028B22F0A7
:1018100070020A4302837047028B22F4E0424FF6C3
:10182000FF7303EA0121114301837047828B22F089
:1018300070020A4382837047828B22F4E0424FF6A3
:10184000FF7303EA0121114381837047028B22F069
:1018500008020A4302837047028B22F400624FF6AB
:10186000FF7303EA0121114301837047828B22F049
:1018700008020A4382837047828B22F400624FF68B
:10188000FF7303EA0121114381837047028B22F029
:1018900004020A4302837047028B22F480624FF6EF
:1018A000FF7303EA0121114301837047828B22F009
:1018B00004020A4382837047828B22F480624FF6CF
:1018C000FF7303EA0121114381837047028B22F0E9
:1018D00080020A4302837047028BC2F30E024FF666
:1018E000FF7303EA0121114301837047828B22F0C9
:1018F00080020A4382837047828BC2F30E024FF646
:10190000FF7303EA0121114381837047028C22F0A7
:1019100002020A4302847047028C22F008020A4342
:1019200002847047028C22F020024FF6FF7303EA14
:101930000111114301847047028C22F080024FF69E
:10194000FF7303EA0111114301847047028C22F4F2
:1019500000724FF6FF7303EA0121114301847047BF
:10196000028C22F400624FF6FF7303EA0121114357
:1019700001847047028C22F400524FF6FF7303EA91
:10198000013111430184704710B501238B40048C51
:101990009C430484038C8A401343038410BD10B518
:1019A00004238B40048C9C430484038C8A4013439F
:1019B000038410BD828B22F440628283828B4FF6B7
:1019C000FF7303EA01210A438283704770B5048CD8
:1019D00024F480540484858B068C4FF6FF7404EA4B
:1019E000013125F4734504EA02222A4304EA033351
:1019F000134326F420420A4342F480518383018436
:101A000081E6828B22F00C028283828B0A438283DE
:101A10007047F0B5048C24F480740484868B058CA4
:101A20004FF6FF7707EA012426F0F30607EA0311D1
:101A30001143314325F42062224342F480728183B2
:101A40000284F0BD028B22F440620283028B4FF6C7
:101A5000FF7303EA01210A430283704770B5048CC7
:101A600024F010040484058B068C4FF6FF7404EAFE
:101A7000011125F4734504EA03332B4304EA0222DF
:101A80001A4326F0A0030B4343F0100102830184A4
:101A900039E6028B22F00C020283028B0A43028396
:101AA000704770B5048C24F001040484058B048C09
:101AB00025F0F3054FF6FF7606EA031313432B4395
:101AC00024F00A020A4342F00101038301841AE66A
:101AD00070B506460C4625886188A2882389002DAA
:101AE0000BD0042D11D0082D17D03046FFF76EFF14
:101AF000E1883046BDE870405CE73046FFF7D1FF33
:101B0000E1883046BDE87040C3E73046FFF7A6FFE6
:101B1000E1883046BDE8704094E73046FFF779FF32
:101B2000E1883046BDE870406BE7002101804180CC
:101B300001228280C180018170472DE9F041074672
:101B40000C46002501266188002900D10225A288C3
:101B5000012A00D1022620882389B0B13846FFF738
:101B60007DFFE1883846FFF76DFF2389324603E0A9
:101B7000000001400004014029463846FFF791FF6C
:101B8000E1883846BDE8F04183E73846FFF789FF32
:101B9000E1883846FFF77DFF2389324629463846DB
:101BA000FFF75CFFE1883846BDE8F0414AE7406B4B
:101BB0007047806B7047C06B7047006C704710B502
:101BC0000A884B88CC881A438B8823431A430B8995
:101BD0001A434B8989891A430A43A0F8442010BD4F
:101BE0000021018041808180C1800181418181810A
:101BF0007047002905D030F8441F41F400410180AE
:101C0000704730F8441FC1F30E010180704700296E
:101C100004D0818841F0040181807047818821F0DF
:101C2000040181807047002904D0818841F00101BE
:101C300081807047818821F0010181807047002AEE
:101C400003D082890A438281704782898A438281D4
:101C500070478182704702460020128A0A4200D0F3
:101C600001207047C9430182704702460020138A51
:101C70000B4092890A40002B02D0002A00D001209C
:101C80007047C943018270471143A0F8481070475C
:101C9000002A03D082890A438281704782898A435D
:101CA00082817047002904D0818841F00801818039
:101CB0007047818821F0080181807047018921F0F7
:101CC000070101817047028922F070020A430281F4
:101CD000704700B503461846FFF7F5FF188940F036
:101CE0000700188100BD70B50D4604461146602DF1
:101CF0000CD001222046FFF7D4FE29462046FFF7EC
:101D0000E2FF208940F007002081FCE40122204608
:101D1000FFF7A4FEF1E730B50489E4B24FF6FF7592
:101D200005EA032313430B432343038130BD10B55E
:101D300004462046FFF7EFFF208920F0070040F01F
:101D4000070020F0700040F07000208110BD10B539
:101D500004462046FFF7DFFF208940F480402081C1
:101D600010BD828822F07002828082880A438280BD
:101D70007047028922F00702028102890A43028128
:101D80007047028922F08002028102890A4302819F
:101D9000704770B50589048B068C25F007050D4347
:101DA0004FF6FC410C4040F201110C4326F0220694
:101DB0004FF6FF7101EA031111433143058104839A
:101DC0000184A0E4002904D0818841F08001818051
:101DD0007047818821F0800181807047A0F8501001
:101DE00070472DE9FF4F83B00C46DDE910781546AA
:101DF0001E4606EB0400029006EB05005FEAC87180
:101E0000A7EB0509A7EB040A01900DD0029809F091
:101E1000FF02C1B2039801F00BFA01980AF0FF0229
:101E2000C1B2039801F004FAA6EB040B5FEA8870D4
:101E3000A6EB05060CD509F0FF020BF0FF01039895
:101E400001F0F6F90AF0FF02F1B2039801F0F0F99F
:101E50005FEA08703D443C440BD50298EAB2C1B237
:101E6000039801F0E5F90198E2B2C1B2039801F0DC
:101E7000DFF95FEA48700DD5EAB20BF0FF01039875
:101E800001F0D6F9039807B0E2B2F1B2BDE8F04F25
:101E900001F0CEB907B0BDE8F08F2DE9FF4F83B058
:101EA0008B46DDF840A09146C3F1010044B2012702
:101EB000584240004FFA80F800261D46CDE9009AAE
:101EC0005B462A4631460398FFF78BFF18E0002C4B
:101ED00008DB6D1EEDB208F102084FFA88F804EB3A
:101EE000080044B2761CF6B2BF1C7FB2E01944B2BF
:101EF000CDE9009A5B462A4631460398FFF771FF09
:101F0000AE42E4D3C6E72DE9F8438046089F0D466C
:101F1000164699464B465B1C5806040EF01AC2B290
:101F2000E81AC1B223464046009400F0D8F80028D1
:101F300006D04B463246294640460097FFF7ADFF94
:101F4000BDE8F8832DE9FF4F83B00E46DDF84490DD
:101F50001746984610985FEAC971A0EB070AA0EBF4
:101F60000600029008EB070008EB060B07F10104DE
:101F700006F1010501900FD0E3B20AF0FF020BF069
:101F8000FF01039801F0AEFB0298EBB2C2B20198D8
:101F9000C1B2039801F0A6FB5FEA8970A8EB0606C0
:101FA000A8EB07070DD5E3B20AF0FF02F1B20398E0
:101FB00001F098FB0298EBB2C2B2F9B2039801F0BB
:101FC00091FB5FEA09700DD5E3B20BF0FF01109AA7
:101FD000039801F087FB0198EBB2C1B2109A039805
:101FE00001F080FB5FEA49700ED5E3B2F1B2109ABE
:101FF000039801F077FB109A039807B0EBB2F9B29F
:10200000BDE8F04F01F06EBB44E72DE9FF4F83B010
:102010008B46DDF840A09146C3F1010044B2012790
:10202000584240004FFA80F800261D46CDE9009A3C
:102030005B462A4631460398FFF784FF18E0002CE0
:1020400008DB6D1EEDB208F102084FFA88F804EBC8
:10205000080044B2761CF6B2BF1C7FB2E01944B24D
:10206000CDE9009A5B462A4631460398FFF76AFF9E
:10207000AE42E4D30EE72DE9F8438046089F0D46B3
:10208000164699464B465B1C5806040EF01AC2B21F
:10209000E81AC1B223464046009400F020F8002818
:1020A00006D04B463246294640460097FFF7ADFF23
:1020B00046E78A4209D8834201D3012070479A42F9
:1020C00001D90120704700207047834205D39A420E
:1020D00001D901207047002070470020704770B57B
:1020E000044604980D461E461044401EC3B294F8A0
:1020F0004B1094F84900FFF7DCFF50B1A819401EBF
:10210000C3B204F148042A46A1782078BDE87040A3
:10211000CFE7002070BD30B48C680023A44630BCEB
:102120000121604730B48C680023A44630BC1A46B5
:102130001946604730B48C680023A44630BC0321A4
:10214000604730B48C680023A44630BC1A46042192
:10215000604730B48C680023A446012230BC0421BF
:10216000604730B48C680023A44630BC022160472D
:1021700030B48C680023A44630BC0521604730B4DD
:102180008C680621A44630BC604730B48C680721B7
:10219000A44630BC60472DE9F04107468846164604
:1021A0000025347875B1FF2C19D0FE2C1FD0F02CEF
:1021B00043D2E02C1DD304F00F0241463846FFF70E
:1021C000D0FF3AE0FF2C08D0224641463846FFF7C0
:1021D000CFFF98BB0020BDE8F08101252EE022460C
:1021E00041463846FFF7C4FFF8B90020F3E7012065
:1021F000F1E7D02C06D304F00F0241463846FFF732
:1022000099FF1AE0C02C11D341463846FFF799FFD9
:102210002001801CC4B22046FEF794FB414638469C
:10222000FFF797FF2046FEF78DFB06E0BE2C04D299
:102230007F2C02D82046FEF785FB0025761CB0E7F0
:1022400001207047084400787047084401784FF631
:10225000FF7202EA01214078084480B270470021F1
:10226000F0E710B5FFF7FBFF28B1012805D00228E1
:1022700005D0032010BD062010BD032010BD062090
:1022800010BD0121DEE70221DCE710B50321FFF7D5
:10229000D9FF40B210BD10B50421FFF7D3FF40B203
:1022A00010BD0521CEE70621CFE70821CDE70A21A1
:1022B000C8E70B21C6E710B50C21FFF7C3FF40B2FA
:1022C00010BD10B50D21FFF7BDFF40B210BD10B518
:1022D0000E21FFF7B7FF40B210BD10B50F21FFF779
:1022E000B1FF40B210BD10B51021FFF7ABFF40B2F7
:1022F00010BD10B50C46FFF7B4FF204410BD2DE90A
:10230000F04707463C463846FFF7A9FF8146384666
:10231000FFF7A7FF8046FF263846FFF7C8FF0546B0
:102320003846FFF7C6FF0146B9F1010F00D10F266D
:1023300011342078FF2809D0A0783040204400EBE9
:1023400008048D4204D1E01BBDE8F087641CF8E767
:102350006D1CEDB2EDE7806893E7806893E78068D5
:1023600093E7806897E780689BE770B504460D4661
:10237000A068FFF774FF98B1022811D0287800F008
:102380000F01891EA17700096077687800F00F01BE
:1023900084F820100009E077A8780009207770BD44
:1023A0002878E077687884F82000E8782077287922
:1023B00060776879A07770BD00210177C17780F8D8
:1023C00020104177817770472DE9F04706460F4688
:1023D000B4682046FFF743FF0546B068FFF741FFAA
:1023E00082464FF0FF09012D01D14FF00F09B0686F
:1023F000FFF75DFF0546B068FFF75BFF8046B068FA
:10240000FFF753FF612F03D310B10444612509E0A6
:10241000B068FFF748FF412F03D310B104444125B2
:1024200000E01134474504D93046FFF7C5FF0020CE
:102430008AE7454517D82078FF2807D0BD4207D145
:1024400021463046FFF791FF20467DE7641C05E0FA
:10245000A07800EA0900204400EB0A04454502D0B8
:102460006D1CEDB2E7E73046FFF7A6FF00206BE7F3
:1024700010B5FFF7A9FF08B1012010BD002010BD65
:1024800010B504462046FFF79FFF10B194F91C00D9
:1024900010BD002010BD2DE9FF4F0C4681B007464E
:1024A000904619463846FFF78FFF014629B3B868B2
:1024B000FFF71FFF0546FE7F97F820A0787F204496
:1024C000C0B20290B87FA8EB0000401EC0B2A0EBE3
:1024D0000A04601CC2B23346CDF800A03846029907
:1024E000FFF7FDFD68B1F61DF0B24FEAD00B641C9A
:1024F00004F0FF094FF0000820E0002005B0BDE81F
:10250000F08F97F91C00F9E7029E00240CE0287870
:10251000009000234A463146384600F090FE6D1C7C
:102520000836F6B2641CE4B25C45F0D309F1010947
:1025300009F0FF0908F1010808F0FF08D045E3D3CE
:1025400097F91C00DAE72DE9F04104460E46904663
:102550001F46656A2046A8474044C2B23B46314602
:102560002046BDE8F04196E72DE9FF4F0E4681B0C9
:102570000746904619463846FFF726FF014611B335
:10258000B868FFF7B6FE0546FC7F97F820A0B87F35
:102590003044401CC6B2787F4044C0B203905346DA
:1025A000009431463846039AFFF799FD68B1E41D5F
:1025B000E0B24FEAD00B06EB0A00401E00F0FF0924
:1025C0004FF000081EE0002098E797F91C0095E7FF
:1025D000039E00240CE028780090012332464946EF
:1025E000384600F02CFE6D1C0836F6B2641CE4B2CE
:1025F0005C45F0D3A9F1010909F0FF0908F10108D0
:1026000008F0FF08D045E3D397F91C0076E72DE9E1
:10261000F0410446884616461F46656A2046A8478C
:10262000A8EB0000C1B23B4632462046BDE8F0416F
:102630009AE72DE9FC5F8846074616461946384654
:10264000FFF7C2FE014639B3B868FFF752FE0546F0
:10265000FC7F97F820A0787FA8EB000000F0FF0B2C
:10266000B87F3044401CC6B2ABEB0400401CC1B282
:10267000234632463846CDF800A0FFF730FD70B152
:10268000E41DE0B2C008019006EB0A00401E00F015
:10269000FF094FF0000820E00020BDE8FC9F97F9FB
:1026A0001C00FAE75E4600240CE028780090022324
:1026B0004A463146384600F0C2FD6D1C083EF6B26F
:1026C000641CE4B201988442EFD3A9F1010909F036
:1026D000FF0908F1010808F0FF08D045E2D397F997
:1026E0001C00DAE72DE9F04104460E4690461F46ED
:1026F000656A2046A847A8EB0000C2B23B463146B7
:102700002046BDE8F04194E72DE9FC5F8846074686
:10271000164619463846FFF757FE014639B3B868E2
:10272000FFF7E7FD0546FC7F97F820A0B87FA8EBF0
:102730000000401EC0B2797F711A01F0FF0BABEBB5
:102740000401491CA0EB0A06CAB2701CC1B2534670
:1027500038460094FFF7C3FC58B1E41DE0B2C0084E
:102760000190761C06F0FF094FF000081FE00020E2
:1027700093E797F91C0090E75E4600240CE0287868
:102780000090032332464946384600F058FD6D1C40
:10279000083EF6B2641CE4B201988442EFD309F11A
:1027A000010909F0FF0908F1010808F0FF08D04508
:1027B000E2D397F91C0070E72DE9F0410446884602
:1027C00016461F46656A2046A8474044C1B23B46AC
:1027D00032462046BDE8F04196E72DE9F041074634
:1027E0000E4690461C460025796A38468847404484
:1027F00000F0FF0809E0424631463846FFF74BFE3D
:102800003118CEB22844C5B2641C2378002BF2D113
:102810002846BDE8F0812DE9F04107468846164676
:102820001C4600257A6A38469047A8EB000000F065
:10283000FF0809E0324641463846FFF795FE311859
:10284000CEB22844C5B2641C2378002BF2D12846AE
:10285000DFE72DE9F04107460E4690461C4600256D
:10286000796A38468847A8EB000000F0FF0809E0C5
:10287000424631463846FFF7DCFE311ACEB22844D4
:10288000C5B2641C2378002BF2D12846C1E72DE99C
:10289000F0410746884616461C4600257A6A3846A7
:1028A0009047404400F0FF0809E032464146384670
:1028B000FFF72AFF311ACEB22844C5B2641C237830
:1028C000002BF2D12846A4E730B4029C002B08D09C
:1028D000012B09D0022B0AD0032B0BD030BC0020D7
:1028E0007047234630BC78E7234630BC93E7234645
:1028F00030BCAEE7234630BCC9E72DE9F0410746BE
:102900000E4690461C460025796A38468847404462
:1029100000F0FF08237853B1424631463846FFF7AE
:10292000BAFD3118CEB22844C5B2641CF2E728467D
:102930006FE72DE9F0410746884616461C460025FC
:102940007A6A38469047A8EB000000F0FF0809E0DB
:10295000324641463846FFF75AFE3118CEB2284477
:10296000C5B2641C2378002BF2D1284651E72DE92B
:10297000F04107460E4690461C460025796A3846C7
:102980008847A8EB000000F0FF0809E04246314606
:102990003846FFF7A7FE311ACEB22844C5B2641CF0
:1029A0002378002BF2D1284633E72DE9F041074682
:1029B000884616461C4600257A6A384690474044A9
:1029C00000F0FF0809E0324641463846FFF7F4FEC2
:1029D000311ACEB22844C5B2641C2378002BF2D140
:1029E000284616E72DE9F8430546089F0C46904611
:1029F0001E462846FFF7B3FC201AC4B22846FFF74C
:102A0000B0FC4044C2B23346214628460097FFF747
:102A10005BFFBDE8F8832DE9F0410646069F0C46B2
:102A200015463046FFF79BFC201AC4B23046FFF72C
:102A300098FC2844C2B23B4621463046FFF72BFDA6
:102A40000020E6E610B50446A06800281DD094F8E2
:102A50002810D9B1012923D0FFF733FC84F82900CD
:102A6000A068FFF734FC84F82A0014F9290F94F9C0
:102A70000110401A80B2A178293C402903D0C0B28D
:102A8000414388B2800984F82C0010BDFFF709FC8F
:102A900084F82900A068FFF70EFC84F82A00E4E718
:102AA000FFF71BFC84F82900A068FFF71CFC84F8E2
:102AB0002A00DAE7002180F82810C3E7012180F816
:102AC0002810BFE7022180F82810BBE780F82B1000
:102AD000B8E700207047AFF205014162704790F8F7
:102AE0002A007047AFF209014162704790F829004F
:102AF000401CC0B27047AFF20B014162704710F842
:102B0000292F4178501A40B200EBD0704010084491
:102B1000C0B27047AFF21901416270470078704748
:102B2000007870472DE9F04105460F46164600240F
:102B30003846B0478046B8F1000F15D041462846C8
:102B4000FFF742FC687F4042C4B27F1C3846B04762
:102B500060B1287F2044C4B23846B0478046414621
:102B60002846FFF731FCF0E7204652E6B8F1200F87
:102B700005D0E87F2044697F0844C0B249E6287F39
:102B80002044C0B245E6AFF26B02CBE7AFF26F0272
:102B9000C8E710B5044609782046FFF715FC94F9FC
:102BA0001D0010BD10B5044609782046FFF70CFC47
:102BB00094F91D0010BD70B506460C46002521781D
:102BC00039B13046FFF700FC307F2844C5B2641CA1
:102BD000F5E7284670BD70B506460C4600252178FD
:102BE00039B13046FFF7F0FB307F2844C5B2641C92
:102BF000F5E7284670BD70B505460E461446002020
:102C00002071317800292AD07F20207080206070C8
:102C100031782846FFF7D8FB687F40422071687FF3
:102C2000A070A87FE07095F91E0094F90010814211
:102C300000DD207095F82010084440B294F901108E
:102C4000814200DA6070761C307868B12079297F83
:102C50000844207131782846FFF7B6FBE3E720707F
:102C60006070A070E07070BD2079E97F0844207129
:102C7000697F0844207170BDBDE7704770472DE93A
:102C8000F0478046DDE908790A9E14461D4609781A
:102C90004046FFF799FB287898F81D1008442870E3
:102CA000207989F8000038786178401A38706078A7
:102CB00030702178401A3070BDE8F0872DE9F0437C
:102CC00085B08046DDE90C560C4691461F462078BB
:102CD000002810D003AA21464046FFF78CFFCDE91B
:102CE00000754B4603AA214640460296FFF7C7FFF0
:102CF00005B0BDE8F083002028703070F8E72DE9BA
:102D0000F04786B00746DDE90E568846924699465A
:102D100098F80000002819D0B868FFF7C2FA0446F6
:102D200004AA41463846FFF766FF9DF91100A0420C
:102D300001DA8DF81140CDE90095534604AA4146C9
:102D400038460296FFF79BFF06B0B5E700202870D3
:102D50003070F9E710B50446A068884207D0A1603A
:102D60002046FFF76FFE2046BDE81040B3E610BDD9
:102D70002DE9FF4F0C4681B007469046194638466C
:102D8000FFF722FB014629B3B868FFF7B2FA054600
:102D9000FE7F97F820A0787F2044C0B20290B87FD1
:102DA000A8EB0000401EC0B2A0EB0A04601CC2B237
:102DB0003346CDF800A038460299FFF790F958B194
:102DC000F61CF0B24FEA900B641C04F0FF094FF0C0
:102DD00000081EE0002019E497F91C0016E4029E8A
:102DE00000240CE02878009000234A4631463846FB
:102DF00000F030FA6D1C361DF6B2641CE4B25C457E
:102E0000F0D309F1010909F0FF0908F1010808F000
:102E1000FF08D045E3D397F91C00DCE72DE9F0412A
:102E200004460E4690461F46656A2046A847404421
:102E3000C2B23B4631462046BDE8F04198E72DE955
:102E4000F04107460E4690461C460025B868FFF73D
:102E500006FA022801D00020DBE4796A3846884768
:102E6000404400F0FF0809E0424631463846FFF78B
:102E70007FFF3118CEB22844C5B2641C2378002BE2
:102E8000F2D12846C5E4000030B40C68A44630BC3A
:102E9000604770B504460D46626C022090470023DF
:102EA0000A2229462046FFF7EFFF0546616C032002
:102EB0008847616C00208847284670BD70B504467D
:102EC0000D46626C02209047626C012090470023FF
:102ED000142229462046FFF7D7FF04F148031722A2
:102EE00029462046FFF7D0FF616CBDE87040002006
:102EF000084770B504460E46626C02209047626C2B
:102F0000012090470023152231462046FFF7BCFFE1
:102F1000054635B104F14803172231462046FFF734
:102F2000B3FF616C00208847284670BD07B502AB2F
:102F30000F22FFF7A9FF0EBD30B41C4600F12D0390
:102F40001A705C7030BC32229EE7F0B41E46DDE998
:102F5000045400F12D031A705E70DD709C70F0BC9B
:102F60003B2291E7F0B41E46DDE9045400F12D0345
:102F70001A705E70DD709C70F0BC2D2284E708B57D
:102F80006B464622FFF780FF9DF8000008BD08B59C
:102F90006B464722FFF778FF9DF8000008BD00232D
:102FA000482271E710B5044620466168FFF7E7FF45
:102FB000207020466168FFF7EAFF60702046616874
:102FC000FFF7EDFFE07404F1480320466168BDE8B7
:102FD0001040172258E780F83110704770B504464A
:102FE0000025A560E5606574012626742220A07482
:102FF000A5610020FF21221882F83410401CC0B2C5
:103000000E28F8D301212046FFF7E5FF2046FFF701
:1030100062FD04F8286F6570A5704020E07025718E
:10302000D048E06170BD10B5044620466168FFF7E6
:1030300030FF20B12046FFF7B5FF012010BD002072
:1030400010BD70B504460D462046FFF7C7FF65600A
:103050002046BDE87040E6E72DE9F04104460E4603
:1030600017462046FFF7BAFF0023FE25E01880F838
:1030700034505B1CDBB20E2BF8D36660B760204681
:10308000BDE8F041CFE72DE9F0470446DDE9099AB4
:10309000DDF820800D4616461F462046FFF79EFFAE
:1030A000656084F8386084F8397084F8368084F874
:1030B000359084F834A02046BDE8F047B3E72DE909
:1030C000F0410446DDF818800D4616461F4620469E
:1030D000FFF784FF656084F8366084F8357084F803
:1030E00034802046BDE8F0419DE770B504460D46AA
:1030F00016462046FFF772FF656084F83F60204661
:10310000BDE870408FE72DE9F0470446DDE9099AF4
:10311000DDF820800D4616461F462046FFF75EFF6D
:10312000656084F8386084F8367084F8358084F8F7
:10313000419084F834A02046BDE8F04773E72DE9BC
:10314000F05F0446DDE90CABDDE90A890D46164661
:103150001F462046FFF742FF04F1220444F81E5C9C
:10316000E675277684F8198084F81A9084F81BA0F5
:1031700084F81CB00E9860770F98A0771098A0750F
:1031800011982075129860751398E0741498E07780
:103190001598A074A4F122042046BDE8F05F42E730
:1031A0002DE9F05F0446DDE90CABDDE90A890D4647
:1031B00016461F462046FFF711FF04F1220444F88B
:1031C0001E5CE675277684F8198084F81A9084F8D6
:1031D0001BA084F81CB00E9860770F98A077109809
:1031E00020751198E0741298E0771398A0751498E0
:1031F000A074A4F122042046BDE8F05F13E7416803
:103200005CE610B50446A169002901D02046884734
:1032100020466168BDE810406BE60A46416885E6D5
:103220000023102241682FE60023112241682BE67B
:1032300030B40C4613462246416830BC7CE61CB5CF
:103240000C460499CDE90031134622464168FFF748
:103250007CFE1CBD1CB50C460499CDE9003113461B
:1032600022464168FFF77EFE1CBD38B5049C8DF8F0
:1032700000108DF801208DF802308DF803406B4668
:103280003C224168FFF700FE38BD00F8311F090AF3
:103290004170704710B521F007049108DA0842EA3E
:1032A000411200F8312FC1F3C2010C43447010BD2C
:1032B00010B4C47C282C07D0302C10D000F8311F5B
:1032C0004270837010BC704701F0E00102F0E00230
:1032D000D4089A092143114380F83110F2E710BC59
:1032E000D8E790F831007047C07C282803D0022826
:1032F00003D001207047FF2070470320704700B5BE
:103300000246D07C302807D01046FFF7EDFF01467B
:1033100010465DF804EB5EE6FF2002F8310F5070B6
:1033200000BD0020704700B502461046FFF7F9FFC8
:10333000014610465DF804EB4DE6C07C282803D01A
:10334000022803D0012070476D207047012070478C
:1033500000B502461046FFF7F0FF014610465DF843
:1033600004EB38E69D390008002282700178491E7E
:10337000C170027170470170427000210171F3E762
:10338000817803781944C9B281704278914201D39F
:10339000002070470179491C0171C1781944C9B2F4
:1033A0008A4201D8521ED1B2C17001207047816893
:1033B00040790844002201F8012B8142FBD170477B
:1033C000C3788B4201D3012300E000238078904230
:1033D00001D8012000E00020914201D9012100E044
:1033E000002103EA00020840194002430A4302F0A8
:1033F000010070474079884201D2012100E000219C
:10340000904201D2012000E0002011B108B100205B
:1034100070470120704730B505460C466178E0786A
:103420004218521ED2B22846FFF7CAFF40B1217897
:10343000A0784218521ED2B22846BDE83040D9E7E3
:10344000002030BD00220A7082784A704279521EF4
:103450008A70C078C87070470B4659780A46DB7886
:10346000002B0BD0012B04D0022B07D0032B05D14E
:1034700002E00832D2B201E00839C9B2A0E730B4A4
:103480000C46114642798368204630BCFEF777BE71
:1034900081604271FFF78BBF30B585688478121B5D
:1034A000012402F007029440E2B26C188068002BFD
:1034B000405C02D01043207030BDD14308402070E2
:1034C00030BD10B44A7883789A420AD3C3789A42BE
:1034D00007D80C7843799C4203D20B79214610BC63
:1034E000DAE710BC704770B506460C46A57828068A
:1034F00003D521463046FFF7E4FFE17831B10129D9
:1035000008D002290AD003290FD10BE02178491CE9
:1035100021700AE06178491C617006E02178491E3B
:10352000217002E06178491E61706806050E002D69
:10353000DDD170BD2DE9F04180460C46A57800260E
:103540000027E178002906D0012906D0022906D0FB
:10355000032907D105E0012604E0012702E0FF2648
:1035600000E0FF27280603D521464046FFF7A9FFC4
:103570002078811921706078384460706806050EE3
:10358000002DEFD1BDE8F08170B51D464C683B2A97
:1035900017D00EDC152A2AD006DC0A2A3BD00B2ACB
:1035A00039D0142A37D11BE0172A2AD0322A32D137
:1035B00011E0462A2AD02EDD472A2AD0482A2AD1CD
:1035C0002BE029462046FFF747FF08B3294620464F
:1035D000FFF7B0FF1FE029462046FFF772FF1AE011
:1035E0002046FFF7E4FE2046FFF7BEFE13E020462C
:1035F000FFF7C6FE18B12046FFF7D9FE0BE000200A
:1036000070BD29462046FFF71DFF04E06079287051
:1036100001E060782870012070BD012070BD2DE9A7
:10362000F84307460D4690461C46FF260AE0002355
:103630004246294638460096FFF701FE083CE4B2B0
:103640000835EDB2082CF2D2002C0CD0E043401C1F
:1036500000F007008640F0B2009000234246294661
:103660003846FFF7ECFDBDE8F8832DE9F84307463F
:10367000884615461C46FF260AE001232A46414695
:1036800038460096FFF7DBFD083CE4B20835EDB2A2
:10369000082CF2D2002CE6D0E043401C00F00700DA
:1036A0008640F0B2009001232A4641463846FFF793
:1036B000C6FDD8E7F8B504460D4616461F4601205C
:1036C00000903B46324629462046FEF708FD00287A
:1036D00007D001B03B46324629462046BDE8F040BF
:1036E0009DE7F8BDF8B505460E4617461C46012372
:1036F0003A46314628460094FEF7F1FC002807D0F0
:1037000001B023463A4631462846BDE8F040ACE7D2
:10371000F8BD2DE9F8430746089D0C4690461E4625
:1037200033464246214638460095FEF7D8FC00282D
:1037300099D03346424621463846FFF770FF2B4664
:10374000424621463846FFF790FFA119491EC9B2EB
:103750002B4642463846FFF788FF08EB0501491E15
:10376000CAB201B0334621463846BDE8F04356E7B9
:1037700079E72DE9F0410646069C0F461546984626
:1037800043462A4639463046FFF749FF6D1CEDB2E5
:10379000641EE4B2002CF3D1BDE8F0812DE9F843BA
:1037A0000546089C0E461746984643463A4631461B
:1037B00028460094FEF793FC002806D043463A467C
:1037C000314628460094FFF7D4FF4CE72DE9FF4F20
:1037D00083B00E46DDE9104B17461D462B463A4690
:1037E000314600940398FEF77AFC002867D006EB78
:1037F0000B0000F0FF0807EB0B0000F0FF09701949
:10380000A0EB0B00401EC0B202903819A0EB0B00D9
:10381000401E00F0FF0A022000905B464A464146E7
:103820000398FEF73AFB01200090DDE902105B46A9
:103830004A46FEF732FB042000905B465246414662
:103840000398FEF72AFB08200090DDE902105B4692
:103850005246FEF722FBA5EB0B00A0EB0B00801EEF
:1038600000F0FF0AA4EB0B00A0EB0B00801E00F0A1
:10387000FF0B08F1010808F0FF0809F1010909F040
:10388000FF09641E6D1E53463A4641460398FFF7F2
:10389000C6FE3819C2B2534641460398FFF7BFFE31
:1038A0005B464A4631460398FFF7DFFE7019C1B206
:1038B000039807B05B464A46BDE8F04FD5E607B02F
:1038C000BDE8F08F2DE9FF4F83B00E46DDE91054BF
:1038D0001746984643463A46314600950398FEF708
:1038E000FEFB0028EBD0301900F0FF09381900F07A
:1038F000FF0A06EB0800001B401E00F0FF0B7819C2
:10390000001B401EC0B20290022000902346524687
:1039100049460398FEF779FB012000902346524662
:1039200059460398FEF771FB04200090DDE9022060
:1039300023464946FEF769FB08200090DDE9022096
:1039400023465946FEF761FBA8EB0400001B801ECE
:1039500000F0FF0B281B001B801EC5B209F10109F6
:1039600009F0FF090AF1010A0AF0FF0A641CE4B237
:103970005B463A46494600940398FFF7FAFEDDE9B4
:1039800002205B4600944946FFF7F3FE4346524649
:10399000314600950398FFF7ECFE90E770474164CD
:1039A00003200847704700002DE9F04107460E4606
:1039B000154698460A2D04D00B2D56D0152D54D1FE
:1039C00005E02E4A31463846FEF7E5FB4DE07468C7
:1039D000002231463846FEF7C4FB02223146384603
:1039E000FEF7A8FB2079314640F0B8023846FEF7D2
:1039F000BFFB402231463846FEF7BAFB0122314672
:103A00003846FEF7AEFB402231463846A368FEF743
:103A1000B6FB002231463846FEF78CFB00223146C9
:103A20003846FEF79EFB012231463846FEF782FB00
:103A30002079314640F0B8023846FEF799FB402223
:103A400031463846FEF794FB012231463846FEF7F0
:103A500088FBA3684022403331463846FEF78FFB8F
:103A6000002231463846FEF765FB43462A4631467A
:103A70003846BDE8F041FFF787BD0000AC7D000887
:103A80000FB41CB5074B06AA7B4469460090059805
:103A900000F0EBFA0020694600F0FAFA1CBC5DF871
:103AA00014FB00000506000070B504468569006837
:103AB000C10601D5302600E02026C00708D070BD21
:103AC000D4E9012130469047206A00F101002062CC
:103AD0006D1EF5D570BD70B5044685690078C007C8
:103AE00008D170BDD4E9012120209047206A00F15F
:103AF000010020626D1EF5D570BD00002DE9F05F5C
:103B0000894604464FF0000ADFF828B1FB44C0F8AC
:103B100020A02046E168884700287CD0252806D0D0
:103B2000D4E901219047206A401C2062F1E700257A
:103B30005F462046E16888472028064608DB312E8C
:103B400006D207EB060010F8200C08B10543F0E799
:103B5000A80701D525F00405C4F81CA00027C4F867
:103B600018A02A2E09D0304600F0DEFF38B304EB4F
:103B70008708303EC8F8186019E059F8041B204641
:103B800004EB87029161E1688847012F064618D14E
:103B9000E069002820DA25F020051DE0D8F818009B
:103BA00000EB800006EB40003038C8F818002046D3
:103BB000E1688847064600F0B7FF0028EED1012FE4
:103BC0000AD02E2E08D12046E16888477F1C064681
:103BD000022F45F02005C4DBA069002803DA40422B
:103BE00045F00105A061E80701D025F0100596B168
:103BF000A6F14100192802D8203645F400654A464E
:103C00003146204625604D46FCF7F8FA60B10128A0
:103C100007D0ED1D00E009E025F0070000F10809DC
:103C200077E705F1040974E7304679E7206ABDE8D3
:103C3000F09F0000B2420000704770477047704725
:103C40002DE9FF4F0C461E464FF0FF378BB0D2E9EF
:103C50000001DDF860800A908A46C1F30A5505B973
:103C60003D46002108464FF00000BAF1000F00F475
:103C7000400005DA00EB80004FF4400101EA5000FB
:103C80004FEA9059B9F1010F00DDB9460A9850EAA0
:103C90004A000ED044F61050A5F2FF3545432F14CC
:103CA000B8F1000F1ED07542291E1EDDC9F10002B9
:103CB0001CE0B8F1010F4FF0000001D0302103E00B
:103CC000F24305E02154401CB042FBDB30460022A9
:103CD000002121540B99C1F80880C1E900200FB0E0
:103CE000BDE8F08FBD1B6D1CDEE74A4600DA694275
:103CF00006A800F05DFA06AB07CB03AB07C350463E
:103D00000A9900F03EFB8DE80700A0F500501F382F
:103D100000900398002D09DD42F21F014A46084435
:103D200003A90390684600F09DFD08E0A0F500504F
:103D30004A461F3803A90390684600F0A7FD8DE8A6
:103D400007000004000C03D04FF0FF30410800E0F2
:103D50001046B8F1000F03D00022009215461FE074
:103D6000751E06D400F09EF902F1300262556D1EF8
:103D7000F8D5B3460122084302D000227F1C04E09C
:103D80002078302801D100227F1E002A099787D091
:103D90001DE0112D07DA00F085F9303262556D1CF7
:103DA00050EA0102F5D108430FD10021681E05E059
:103DB000235C625C6354491C2254401E8142F7DB41
:103DC000AB46A81B401E099001E0009848B10020B6
:103DD00004F80B000B98099AC0F80880C0E9002B82
:103DE0007DE711264FF000085AE72DE9F04F88468D
:103DF0000446D21D22F0070191B0D1E90001CDE9BE
:103E00000A0100F079FE02460B98C00F01D02D2068
:103E100007E02068810701D52B2002E0202101EA7C
:103E2000C000032A099001D0072A05DB034641465A
:103E3000204600F07DF90FE12078800601D5E06989
:103E400000E00620B8F1650F814606D0B8F1660F94
:103E500018D0B8F1670F72D132E00020B9F1110F1C
:103E6000009001DB112301E009F101030AAA01A975
:103E70000CA8FFF7E5FEDDE90C70002609F101054D
:103E8000834648E001204B4600904FF000470AAAC5
:103E900001A90CA8FFF7D4FEDDE90DB00C995D4631
:103EA000002618B909F1010001EB0005B9EB050086
:103EB00003D4C0F1FF3609F10105A5EB09002BE0A1
:103EC000B9F1010F01DA4FF001090020B9F1110F2A
:103ED0000090484601DD112300E003460AAA01A92B
:103EE0000CA8FFF7ADFEDDE90C704D4600268346B9
:103EF000207800070AD4AB4500DA5D4601A8012D01
:103F000004DD411911F8011C302907D04F4502DAB0
:103F100017F1040F04DA0120824610E06D1EEEE76F
:103F2000002F02DCED1B3E4403E0781CA84200DDBC
:103F30000546A7EB060000F1010A4FF00047207884
:103F4000000703D4AA4501DB4FF0FF3A0021B7F187
:103F5000004F0DF143088DF8431023D002202B238E
:103F6000002F01DA7F422D234FF00A0C011EA0F131
:103F7000010000DC4FB197FBFCF10CFB11720F4606
:103F800002F1300208F8012DF0E7A8F101000370FA
:103F90002188090501D5452100E06521A0F101082E
:103FA00000F8011C09980FA9A1EB080707F1070702
:103FB00000B1012000EB050101EBEA70A169384472
:103FC000A1EB0000A0F10100A0612078C00602D49E
:103FD0002046FFF769FD099830B1D4E901219047E7
:103FE000206A00F1010020622078C00620D520461A
:103FF000FFF75AFD1CE0002E04DBB34502DD01A8EB
:10400000805D00E03020D4E901219047206A761CD1
:10401000401CBAF1010A20620AD100F03FF8C068E2
:104020000168405CD4E901219047206A401C20626D
:10403000281EA5F10105DEDC07E0D4E9012118F80E
:10404000010B9047206A401C2062381EA7F101072F
:10405000F3DC2046FFF73FFD022011B040E60000F0
:1040600001694A1C02610878704700B58FB0CDE93C
:1040700001310021059105497944CDE9031011462C
:104080006846FFF73BFD0FB000BD0000E5FFFFFFF6
:104090000A6802F8010B0A60704700000048704788
:1040A0007C01002030B5B0F10A024FEA900E71F1A8
:1040B00000034EEA817EB0EB0E0061EB91014FEA06
:1040C000101E4EEA017E10EB0E0041EB11114FEA7B
:1040D000102E4EEA016E10EB0E0041EB11214FEA5B
:1040E000104E4EEA014E10EB0E0041EB114140180C
:1040F00041F100014FEAD00040EA41704FEAD1019E
:1041000010EB80054FEA810444EA907444EB01040B
:104110006D1944EB0404521BA3414FF0000348BF48
:104120000A3200D530BD401C41F1000130BD000015
:104130002DE9F0411F46044603260168072A01F4D1
:10414000006004DB08B116A505E016A503E008B180
:1041500015A500E015A521F010002060A069C01E83
:10416000A0610FB1401EA0612046FFF79DFC4FB13A
:10417000D4E9012138469047206A401C2062C01CC7
:10418000206206E0206AFAE7D4E9012115F8010B64
:104190009047761EF8D22046FFF79DFCBDE8F081DF
:1041A0004E414E006E616E00494E4600696E6600DB
:1041B0002DE9F047814616468AB035487844D0E963
:1041C000002380680092CDE90130314878440C38F2
:1041D000D0E90223006903924FF03702CDE90430A1
:1041E00041F69B30014491FBF2F0A0F1800502FB07
:1041F00010141B3C02D56442012000E00020DFF8CF
:1042000090A080460027FA44AAF1C60A0DE0E00714
:1042100009D03246684607EB47010AEB810100F0FE
:1042200035FB8DE8070064107F1C002CEFD1184F80
:104230007F44B43F17E0E80713D007EB04100DF1FB
:10424000180A90E80E00AAE80E00C068F04201D1FA
:1042500098190890324606A903A800F017FB03AB93
:1042600007C36D10641C002DE5D132466946B8F1D4
:10427000000F03A802D000F0F5FA01E000F006FB01
:10428000C9E90001C9F808200AB0BDE8F0870000BC
:10429000903C0000004870475C0100207546FFF725
:1042A000F9FFAE4605006946534620F007008546F3
:1042B00018B020B5FBF7D2FFBDE820404FF0000654
:1042C0004FF000074FF000084FF0000B21F00701FE
:1042D000AC46ACE8C009ACE8C009ACE8C009ACE841
:1042E000C0098D4670470446AFF300802046FBF7B7
:1042F000A1FF00004FF0013C50F8042B51F8043BA3
:104300009A4221D1A2EB0C03934313EACC1317D1A9
:1043100050F8042B51F8043B9A4215D1A2EB0C0340
:10432000934313EACC130BD150F8042B51F8043B00
:104330009A4209D1A2EB0C03934313EACC13DBD0CE
:104340004FF00000704700BFD01A01BAB1FA81F1F6
:1043500001F0180122FA01F0CB40C1F12001DBB2DB
:10436000C0B2C01A2CFA01F3D11A914311EAC31159
:10437000E6D1704701491820ABBEFEE726000200D7
:1043800070475FEA400C08BF91F0000F4FEA8C23A2
:104390004FEAC12243EA51514FEA1C5018BF00F5C1
:1043A000F0404FEA300018BF41F000415FEA6C5C1A
:1043B00000F02980BCF1FF3F08BF40F0804070470B
:1043C000130C06BF12044FF0100C4FF0000C130E2C
:1043D00004BF12020CF1080C130F04BF12010CF100
:1043E000040C930F04BF92000CF1020CD30F04BF16
:1043F00052000CF1010C11464FF00002A0F11F0019
:10440000A0EB0C00704711F0004F08BF704731F06F
:1044100000413FF4D5AF0B0C06BF09044FF0100C60
:104420004FF0000C0B0E04BF09020CF1080C0B0F2F
:1044300004BF09010CF1040C8B0F04BF89000CF1BF
:10444000020CCB0F04BF49000CF1010CCCF120038E
:10445000A0EB0C0022FA03F302FA0CF241EA03018A
:1044600000F10100704720F07F4C80EA030023F048
:104470007F47ACEB070303F57C5300F0004003F1EA
:10448000FF032DE980494FEA154B09B44FEA144365
:1044900025EA0B4E24EA03480FF2042606EB132705
:1044A00049083E785FEA320203FB0667C7F500075A
:1044B00007FB06F64FEA54374FEAD64606F10206E6
:1044C00007FB066CCCF1005C4FEA1C472CEA074C5A
:1044D00007FB06F40CFB06F504EB15464FEA9616AF
:1044E00034BF00204FF000404FEAD13706FB07FCF5
:1044F0004FEA1C4C0CFB0BF7D21B03FB0CF761EBD8
:1045000007010CFB0EF7B0EB074072EB17420CFBF8
:1045100008F734BFA2EB0742B2EB074261EB174149
:104520004FEA0C444FEA910706FB07FC4FEA1C4C8C
:104530000CFB0BF7B0EBC74072EB573203FB0CF7E9
:1045400034BFA2EBC742B2EBC74261EB57310CFB61
:104550000EF7B0EBC70072EB57720CFB08F734BFD5
:10456000A2EBC702B2EBC70261EB5771039F4FEAA0
:10457000816141EA921104EBCC044FEAD1374FEA52
:10458000826206FB07FC42EA90124FEA80604FEA23
:104590001C4C0CFB0BF7D21B03FB0CF761EB070168
:1045A0000CFB0EF7B0EB074072EB17420CFB08F761
:1045B00034BFA2EB0742B2EB074261EB17414FEA6F
:1045C0008C554FEA910704EB9C2406FB07FC4FEA4D
:1045D0001C4C0CFB0BF7B0EBC74072EB573203FBE4
:1045E0000CF734BFA2EBC742B2EBC74261EB5731C5
:1045F0000CFB0EF7B0EBC70072EB57720CFB08F721
:1046000034BFA2EBC702B2EBC70261EB577115EBE7
:104610004C254FEA816141EA92114FEA82624FEAEA
:10462000D13742EA901206FB07FC44F100044FEA3E
:1046300080604FEA1C4C0CFB0BF7D21B03FB0CF702
:1046400061EB07010CFB0EF7B0EB074072EB174272
:104650000CFB08F734BFA2EB0742B2EB074261EB59
:10466000174115EB1C154FEA813141EA92414FEA9F
:10467000823242EA90424FEA80304FEA0C7644F1AF
:10468000000448EA03434EEA0B484FF0000EB2EB39
:10469000080C71EB030724BF624639464EEB0E0E41
:1046A0004FF0000B0018524149414BEB0B0BB2EBA2
:1046B000080C71EB03077BF1000B24BF62463946FF
:1046C0004EEB0E0E4FF0000B0018524149414BEBE0
:1046D0000B0BB2EB080C71EB03077BF1000B24BF53
:1046E000624639464EEB0E0E51EA020718BF46F0FD
:1046F000010616EB0E7655F1000254F1000103D5C8
:10470000BDE88901BDE80088BDE88901BDE8004831
:10471000B619524141EB0101A3F1010370478080BA
:104720007F7E7D7C7B7A797877767675747372710B
:1047300071706F6E6E6D6C6C6B6A6A6968686766C3
:1047400066656464636362616160605F5F5E5E5D55
:104750005D5C5C5B5B5A5A595958585757565655C9
:1047600055555454535352525251515050504F4F2B
:104770004F4E4E4D4D4D4C4C4C4B4B4B4A4A4A497B
:1047800049494848484747474746464645454544BE
:104790004444444343434342424242414141002B4B
:1047A00026D4770021D01CB54FEA370703B44FF069
:1047B00010004FF010014FF000000FBCBDE810409A
:1047C0000BF1010BBBF1010F08BF5FEA170722BF16
:1047D00012F1010211F101014FF0004143F1000318
:1047E00000F0004043EA00007047F9D35708DAE7C9
:1047F00046EA064613F1400F4FEA16461FDD13F155
:10480000200FDFBF16430A46002120335B42C8D089
:10481000C3F1200746EA064602FA07F74FEA1646B2
:1048200046EA0706C3F1200722FA03F201FA07F766
:1048300021FA03F14FF0000342EA0702B1E746EA2A
:10484000020646EA06464FEA164646EA0106BCBF9D
:1048500046EA0646360C4FF000034FF000024FF0D8
:1048600000019EE72DE9C048934630B491E8380036
:1048700007C831EA400C48BF34EA430C03D5FFF7C0
:10488000F2FDFFF78CFFF0BCBDE800882DE9C048C1
:10489000934630B491E8380007C810F0804F08BF45
:1048A00013F0804F03D100F005F8FFF778FFF0BC5C
:1048B000BDE8008820F07F4780EA030023F07F4CAA
:1048C00007EB0C03A3F57C5300F00040A3F1FE03BB
:1048D00092F0000F00F0B38095F0000F00F07780A9
:1048E0002DE901494FEA11404FEA144621EA0048F8
:1048F00000FB06FC24EA064708FB06F607FB08F85F
:1049000000FB07F718EB06484CEB164C4FEA124B2E
:1049100018EB07484FEA15464CEB174022EA0B4EBE
:104920000BFB06FC25EA06470EFB06F607FB0EFE10
:104930000BFB07F71EEB064E4CEB164C4FF0000638
:104940001EEB074E4CEB174B18EB0B0840F1000029
:1049500018EB0E0B58EB000840F100008F1A4FF0D7
:1049600000013CBFC943661B14BFB5EB040C00211A
:104970003CBFC943F61B4FEA17444EEA8E0E27EAA6
:1049800004454FEA1C4704FB07622CEA074C05FB71
:1049900007F70CFB05F604FB0CFC16EB074642EB95
:1049A000174216EB0C4642EB1C421BEB060658EB7B
:1049B0000202414146EA9E0601D5BDE80189B619C9
:1049C000524141EB0101A3F10103BDE801894FEA26
:1049D00014454FEA114724EA054621EA074C05FB36
:1049E00007F406FB07F70CFB06F105FB0CFC11EBCB
:1049F000074144EB17444FEA124711EB0C4144EBDB
:104A00001C4422EA074C05FB07F206FB07F70CFBE8
:104A100006F605FB0CFC16EB074642EB174216EBBD
:104A20000C4642EB1C456A1854F1000148BF704720
:104A3000B619524141EB0101A3F10103704795F012
:104A4000000F37D04FEA11424FEA144721EA0246DD
:104A500024EA074C02FB07F106FB07F70CFB06F400
:104A600002FB0CFC14EB074441EB17414FEA1547DE
:104A700014EB0C4441EB1C4125EA074C02FB07F503
:104A800006FB07F70CFB06F602FB0CFC16EB0746D1
:104A900045EB174516EB0C4645EB1C42121951F13C
:104AA000000148BF7047B619524141EB0101A3F123
:104AB000010370474FEA14454FEA114724EA0546BF
:104AC00021EA074C05FB07F106FB07F70CFB06F292
:104AD0004FF0000605FB0CFC12EB074241EB1741BF
:104AE00012EB0C4251EB1C4148BF7047921841EB4E
:104AF0000101A3F10103704703B40198410000983C
:104B000050EAC12018BF04204A0D18BF40F0010030
:104B100040F2FF72B2EB515F08BF40F00200012883
:104B200008BF052002B0704730380A2801D20120A2
:104B3000704700207047000010B500290AD008789F
:104B4000002807D005487844FFF7D4FB002801D09F
:104B5000002010BD0248784410BD00004233000020
:104B60003A33000021F00042A2F16052B2F5801FFA
:104B700001F0004328BFD2F17F6C0BD95FEA001C23
:104B800043EAC20242EB507018BF704728BF20F0C2
:104B900001007047B2F5801FBCBF184670474FEA4E
:104BA000410C1CF5001F02D2084600F02BBB70B56B
:104BB00000F074F900000089FFF7F6BF4FF00040E5
:104BC000A0F580007047000010B591EA030F48BFC0
:104BD00083F0004300F1BE81841A71EB030C05D20F
:104BE000121943EB0C03001B61EB0C01DFF824E10D
:104BF0004FEA1154A4EB135C1EEA430F18BF9EEA60
:104C0000445F73D023EA0E03DCF1200E21EA045145
:104C100043F4801332D322FA0CFE10EB0E0023FA79
:104C20000CFE41EB0E01CCF1200E03FA0EFE10EB50
:104C30000E0051F10001B1F5801FCCF1200E32D2EF
:104C400001EB045112FA0EF2BDE8104058BF704754
:104C5000401C38BF5FEA420218BF7047002814BFEB
:104C600020F0010041F100014FEA410313F5001F5C
:104C700038BF7047A1F1C04100F05EB9012A43EB93
:104C80000302ACF1200CDCF11F0E32BF4FF0000E1E
:104C900023FA0CF310EB030041EB0451B4EB115F6A
:104CA000D0D0A1EB045101F5801149085FEA300032
:104CB00001EB04510ED350F1000038BF12FA0EFE82
:104CC00008D1BDE81040C9E7401C38BF5FEA420286
:104CD000CAD1C3E7BDE810404FEA410313F5001FF6
:104CE00038BF7047A1F1C04100F026B99EEA445F89
:104CF00008D011EA5E0FBDE8104004BF01F000418A
:104D000000207047BDE8104070B500F0C7F800BF44
:104D100064FBBE3E0000E0FF10F0004248BF40428E
:104D2000B0FA80F310FA03F10AD0C3F11D0303F5C2
:104D300080634FEA415002EB035202EBD1217047EE
:104D40004FF0000070470000DFF848C170B51CEA62
:104D5000111E1EBF1CEA13159EEA0C0F95EA0C0FDC
:104D600000F06F8081EA030423EA4C134EEAD47EFC
:104D700021EA4C1141F4801143F48013AE44A1FBAD
:104D8000024CA0FB0365AEF17F7E361955EB0C0596
:104D9000A1FB034C4CF10003A0FB021C16EB0C061C
:104DA000654153F10003094218BF46F0010613F4B0
:104DB000007F0BD14FEA03314FEA0530340341EA5B
:104DC000155140EA16506FF003020AE04FEAC32182
:104DD0004FEAC520F40241EA555140EA56506FF0BF
:104DE000020202EB2E4201EB025585EACE710AD097
:104DF0005FEA440C18BF24F0004450F1000041F178
:104E0000000120EAD47040F2FE7C624500D270BD01
:104E1000A84214BF4FF080444FF04044002E08BF1A
:104E20000024BEF1806FA8BFA1F1C041BDE8704071
:104E300080F282804FF0000001F1C04101F000419A
:104E400070479EEA0C0F0CEA131518BF95EA0C0F79
:104E500006D04FF0000081EA030E0EF0004170BD55
:104E600000F01CF88900013E00F007B800F009B816
:104E70004FEA430C5FEA5C5C08D081EA030100F072
:104E80005BB84FEA410C5FEA5C5CF6D14FF0000082
:104E9000014970470000FF070000F87F0EF1020E85
:104EA0002EF0030E5EF8046B364205D4012A43EB64
:104EB000030515F5001F12D8012841EB010C1CF564
:104EC000001F0CD80ED14FEAD17C15F5001F0CEB5A
:104ED0004C0C0CF1020C08BF4CEBD37C04E04FF0FF
:104EE000080C01E04FEAD37C0CEB4C0526FA05F6E2
:104EF00006F00706B6F1040C06D20EEB860CBDE8F0
:104F000070404CF0010C6047DFE80CF0090B020226
:104F10004FF000414FF00000A1F5002170BD19468F
:104F20001046012851EB010418BFD4F5001484BFCA
:104F3000002001F0004170BD0808A0F500114FEA03
:104F40003101704710B591EA030F48BF83F0004369
:104F50003FF542AE841A71EB030C07D212198CF0A4
:104F6000004C43EB0C03001B61EB0C01DFF8A4E1E8
:104F70004FEA1154A4EB135C1EEA430F18BF9EEADC
:104F8000445F00F0B08023EA6E03524221EA0451EC
:104F9000C3EB6E0338BF5B1EDCF1200E25D322FA73
:104FA0000CFE10EB0E0043FA0CFE41EB0E01CCF1AF
:104FB000200E03FA0EFE10EB0E0051F10001CCF1B1
:104FC000200E29D412FA0EF201EB0451BDE8104074
:104FD00058BF7047401C1CBFB2F1004F70470028FB
:104FE0000CBF491C20F00100704712EB020E43EB8E
:104FF000030218BF4FF0010E4EEA4202ACF1200C42
:10500000DCF11E0E54D943FA0CFE10EB0E0051F1E8
:10501000FF31CCF11E0ED5D50EF1010E12FA0EFEA7
:10502000404141EB010101EB445C5FEA5C5C10D95B
:1050300010EBDE7001EB045138BFBEF1004FBDE84C
:10504000104018BF704700280CBF491C20F0010019
:10505000704730D24FEAD42C11F5001124F40064CB
:105060001BD0B1FA81F20B3AA41AA41ED2F120038C
:10507000914030FA03F31943904001EBCC71002CBE
:1050800001EB0451BDE81040A8BF704701F1C041D9
:105090004FF0000001F000417047B0FA80F310FAC1
:1050A00003F100D110BDE41A173C4805C90AE4E732
:1050B00001EB045110BD491001EB0451BDE8104053
:1050C0004FEA300002E04FF0000170474A0008BF8D
:1050D0000042F8D0B2F5001F28BF704701F0004130
:1050E0004FF0000070479EEA445F07D011EA5E0F60
:1050F000BDE8104004BF002100207047BDE810400B
:1051000070B5FFF7CBFE00BF40DFF63E83F00041F5
:10511000104670470000E0FF43004FEAD30C4FEA0F
:105120003C0C43401FBF40070CF1605113F0FE4F91
:1051300070471CF0006F03D100200CF00041704755
:105140000CF0004343EA507010B540EACC0000F088
:105150000EF800BF000000924FEA0001FFF7ECBE1E
:105160004FF000414FF00000A1F5002170470EF113
:10517000020E2EF0030E5EF8044B244204D44FEAD4
:105180004102B2F17F4F11D84FEA4003B3F17F4F94
:105190000CD80ED14FEAD07CB2F17F4F0CEB4C0C07
:1051A0000CF1020C08BF4CEBD17C04E04FF0080C72
:1051B00001E04FEAD17C0CEB4C0324FA03F404F039
:1051C0000704B4F1040C06D20EEB840CBDE81040C9
:1051D0004CF0010C6047DFE80CF0070802024FF0CA
:1051E0000040A0F5800010BD0846420018BFD2F173
:1051F000807288BF00F0004010BD4FF04070E1EEBB
:10520000100A7047FF2141EAD050C0057047FEF7F1
:10521000ECBD000C13FFFB0801B6037A20FFFE0B68
:10522000FE08FE000000030001020808040100C09F
:10523000C0C0C0808000C0030303050105A0A0A07A
:1052400007070706FF0028287E28FC5050050A0A99
:105250000600FF2070A8E0703828A8702007080812
:1052600008000062B46810102C568C07080808006B
:105270000070D8D870DECCDC760103030301058012
:105280008080030A0A0400FE206040C0C0C0C04005
:105290006020030A0A0400FE80C040606060604035
:1052A000C080030303040005A040A0060505060016
:1052B000013030FC30300204040300FEC0C04080E6
:1052C000040101050003F0020202030000C0C00453
:1052D00008080400001010202040408080050808C5
:1052E00006000070D8D8D8D8D8D8700308080601AE
:1052F0000060E060606060606005080806000070A3
:10530000D818183060C0F805080806000070D818D2
:10531000301818D870060808060000081838589881
:10532000FC1818050808060000F8C0C0F01898D846
:105330007005080806000070D8C0F0D8D8D87005ED
:105340000808060000F8181830306060600508088A
:1053500006000070D8D870D8D8D8700508080600A4
:105360000070D8D8D87818D870020606030000C09C
:10537000C00000C0C00208080300FEC0C00000C09A
:10538000C040800405050500013060C060300503A1
:1053900003060002F800F8040505050001C06030AE
:1053A00060C005080806000070D818306060006012
:1053B0000A09120B00FF1F0060804D409240A2407E
:1053C000A4809B0040003E00070808080000383811
:1053D0006C6C6CFEC6C6060808070000F8CCCCF85A
:1053E000CCCCCCF80708080800003C66C2C0C0C29C
:1053F000663C060808070000F0D8CCCCCCCCD8F02E
:10540000050808060000F8C0C0F8C0C0C0F80508CC
:1054100008060000F8C0C0F0C0C0C0C007080808F7
:1054200000003C66C2C0CEC6663A06080807000007
:10543000CCCCCCFCCCCCCCCC020808030000C0C047
:10544000C0C0C0C0C0C00508080600001818181861
:105450001818D870070808070000CCD8F0E0F0D87A
:10546000CCC6050808060000C0C0C0C0C0C0C0F857
:105470000908100A0000C180E380E380F780D5802E
:10548000DD80C980C980070808080000C6E6E6D6A6
:10549000D6CECEC6070808080000386CC6C6C6C6F9
:1054A0006C38060808070000F8CCCCCCF8C0C0C0A7
:1054B0000709090800FF386CC6C6C6D66C3C020650
:1054C0000808070000F8CCCCCCF8CCCCCC060808F7
:1054D00007000078CCE0781C8CCC78060808070020
:1054E00000FC30303030303030060808070000CC87
:1054F000CCCCCCCCCCCC78070808080000C6C66C55
:105500006C6C3838100A08100B0000CCC0CCC0CC32
:10551000C06D806D807F803300330007080808006D
:1055200000C6C66C38386CC6C6080808090000C337
:10553000C366663C181818060808070000FC0C181B
:10554000307060C0FC030A0A0400FEE0C0C0C0C0A6
:10555000C0C0C0C0E00408080400008080404020B3
:10556000201010030A0A0400FEE0606060606060C2
:105570006060E004040405000460F09090060101FE
:105580000600FEFC02020203000780400606060633
:105590000000709878D8D86C050808060000C0C0D4
:1055A000F0D8D8D8D8F004060605000070D0C0C0E6
:1055B000D070050808060000181878D8D8D8D87810
:1055C00005060606000070D8F8C0D8700508080463
:1055D000FF003860F060606060600508080600FE4B
:1055E00068D8D8D8D8781870050808060000C0C058
:1055F000F0D8D8D8D8D8020808030000C000C0C02E
:10560000C0C0C0C0030A0A03FFFE600060606060A3
:10561000606060C0060808060000C0C0D8F0E0F076
:10562000D8CC020808030000C0C0C0C0C0C0C0C0C1
:10563000080606090000B6DBDBDBDBDB0506060639
:105640000000B0D8D8D8D8D805060606000070D813
:10565000D8D8D8700508080600FEB0D8D8D8D8F039
:10566000C0C00508080600FE68D8D8D8D878181831
:10567000040606040000B0E0C0C0C0C0050606066F
:10568000000070D87018D87004080804FF0060602B
:10569000F06060606030050606060000D8D8D8D8F3
:1056A000D868050606060000D8D8D850702007062E
:1056B00006080000D6D6D66C6C6C060606070000FD
:1056C000CC783078CCCC0508080600FED8D8D8D8DD
:1056D00078303060050606060000F8183060C0F823
:1056E000040A0A0500FE30606060C06060606030DF
:1056F000010A0A0301FE8080808080808080808093
:10570000040A0A0500FEC06060603060606060C02E
:1057100005020206000368B0FFFFFFFFFFFFFFFF67
:10572000FFFFFFFFFFFFFFFFFFFFFFFFFFFFFFFF89
:10573000FFFFFFFFFFFFFFFFFF000000030001026C
:1057400008080401FEC0004040C0C0C0C0050808F1
:105750000600FF1070D8A0A0D87040050808060009
:1057600000386860F0606068D806060606000184AC
:1057700078484878840608080700008484CC48FCF0
:1057800030FC30010A0A0301FE8080808000008026
:10579000808080050A0A0600FE70C8E07098C87014
:1057A000389870030101030007A00808080A0100E7
:1057B0003C4299A5A19D423C030505050103E0205B
:1057C000A000E00603030700016CD86C0503030783
:1057D0000102F80808040101050003F00808080A9E
:1057E00001003C42BDA5B9A5423C030101030007ED
:1057F000E003030304000560A0C0060707060000DD
:105800003030FC303000FC03040403000460A0408E
:10581000E0030404030004E04020C002020203008D
:105820000740800508080600FED8D8D8D8D8E8C0B8
:10583000C0060A0A0600FE7CE8E8E868282828284E
:1058400028020101030003C00202020300FE40C05F
:1058500002040403000440C04040030505050103A1
:10586000E0A0E000E0060303070001D86CD80808B8
:105870000809000044C4484812262F4207080809B6
:10588000000044C44848162A244E080808090000AD
:10589000E44428C812262F420508080600FE3000FE
:1058A000303060C0D870070B0B08000020100038A3
:1058B000386C6C6CFEC6C6070B0B080000081000A5
:1058C00038386C6C6CFEC6C6070B0B08000010283D
:1058D0000038386C6C6CFEC6C6070B0B0800001451
:1058E000280038386C6C6CFEC6C6070A0A0800002F
:1058F000280038386C6C6CFEC6C6070B0B0800001D
:1059000010281038386C6C6CFEC6C60908100A00E6
:10591000003F803C006C006F806C00FC00CC00CF2E
:1059200080070A0A0800FE3C66C2C0C0C2663C107E
:1059300030050B0B060000402000F8C0C0F8C0C0C6
:10594000C0F8050B0B060000102000F8C0C0F8C01E
:10595000C0C0F8050B0B060000205000F8C0C0F8CE
:10596000C0C0C0F8050A0A0600005000F8C0C0F820
:10597000C0C0C0F8020B0B030000804000C0C0C0D4
:10598000C0C0C0C0C0020B0B030000408000C0C0FC
:10599000C0C0C0C0C0C0030B0B03FF0040A000602C
:1059A00060606060606060040A0A03FF009000604D
:1059B0006060606060606007080807FF00786C66E0
:1059C000F666666C78070B0B080000142800C6E624
:1059D000E6D6D6CECEC6070B0B080000100800385E
:1059E0006CC6C6C6C66C38070B0B08000008100052
:1059F000386CC6C6C6C66C38070B0B0800001028EA
:105A000000386CC6C6C6C66C38070B0B08000014FD
:105A10002800386CC6C6C6C66C38070A0A080000DB
:105A20002800386CC6C6C6C66C38060505060001D7
:105A3000CC783078CC0708080800003A6CCED6D66F
:105A4000E66CB8060B0B070000201000CCCCCCCCC9
:105A5000CCCCCC78060B0B070000081000CCCCCCCB
:105A6000CCCCCCCC78060B0B070000205000CCCC63
:105A7000CCCCCCCCCC78060A0A0700004800CCCCB1
:105A8000CCCCCCCCCC78080B0B090000040800C3AC
:105A9000C366663C181818060808070000C0F8CC52
:105AA000CCCCF8C0C005080806000070C8C8D0C833
:105AB000C8C8D0060909060000201000709878D8E0
:105AC000D86C060909060000102000709878D8D814
:105AD0006C060909060000205000709878D8D86C30
