:020000040800F2
:100000007807002029020008650700086707000834
:10001000690700086B0700086D0700080000000072
:100020000000000000000000000000006F07000852
:10003000710700080000000073070008750700083A
:10004000430200084302000843020008430200087C
:10005000430200084302000843020008430200086C
:10006000430200084302000843020008430200085C
:10007000430200084302000843020008430200084C
:10008000430200084302000843020008430200083C
:10009000430200084302000843020008430200082C
:1000A000430200084302000843020008430200081C
:1000B000430200084302000843020008430200080C
:1000C00043020008430200084302000843020008FC
:1000D00043020008430200084302000843020008EC
:1000E00043020008430200084302000843020008DC
:1000F00043020008430200084302000843020008CC
:1001000043020008430200084302000843020008BB
:1001100043020008430200084302000843020008AB
:10012000430200084302000843020008430200089B
:10013000430200084302000843020008430200088B
:10014000430200084302000843020008430200087B
:10015000430200084302000843020008430200086B
:10016000430200084302000843020008430200085B
:10017000430200084302000843020008430200084B
:10018000430200084302000800F002F800F03CF8C7
:100190000AA090E8000C82448344AAF10107DA45E2
:1001A00001D100F031F8AFF2090EBAE80F0013F0F8
:1001B000010F18BFFB1A43F001031847283600004F
:1001C00048360000103A24BF78C878C1FAD85207E0
:1001D00024BF30C830C144BF04680C6070470000C1
:1001E0000023002400250026103A28BF78C1FBD840
:1001F000520728BF30C148BF0B6070471FB502F0DF
:100200003CFF1FBD10B510BD02F001FF1146FFF706
:10021000F5FF00F0F3F902F01FFF03B4FFF7F2FF60
:1002200003BC02F023FF000009488047094800474B
:10023000FEE7FEE7FEE7FEE7FEE7FEE7FEE7FEE796
:10024000FEE7FEE704480549054A064B70470000F3
:1002500011030008890100087801002078070020B8
:1002600078030020780300200CB500220192009250
:100270005849086840F4803008604FF4A06308686B
:1002800000F4003000900198401C0190009810B9D3
:1002900001989842F3D10868800302D501200090AC
:1002A00000E000920098012831D14A4840300268AD
:1002B00042F0805202604848026842F48042026084
:1002C0004448083002680260026842F4004202605A
:1002D000026842F4A0520260021F404B13600A6899
:1002E00042F080720A600A689201FCD53C4A40F2F2
:1002F00005611160016821F003010160016841F0AE
:10030000020101600168C1F381010229FAD10CBD2B
:1003100010B53448016841F4700101602D4801684E
:1003200041F0010101602B4A00210832116002688E
:100330002D4B1A400260031D2C4A1A60026822F4F9
:100340008022026023480C300160FFF78DFF2549B1
:100350004FF000608039086010BD70B51D4E083642
:10036000306800F00C00224B224900280FD05D10AD
:1003700004280ED008280ED00B6030681D4AC0F348
:100380000310121D105C0A68C2400A6070BD0B6049
:10039000F3E70D60F1E70F4A121D1068C0F38054B7
:1003A000106800F03F0034B1B5FBF0F01368C3F300
:1003B0008813584305E0B3FBF0F01368C3F38813C8
:1003C00058431268C2F30142521C5200B0FBF2F0D3
:1003D0000860D2E70038024000700040085440072F
:1003E000003C024088ED00E0FFFFF6FE10300024E4
:1003F0000024F4000000002010B5BE49BE4801F002
:1004000015FFBD4801F0C6FDBB4802F038FABDE853
:100410001040B94801F0DBBDF8B504460022B7A38F
:100420001146B54801F045FC0A2514232A4605214A
:10043000B148009502F072FC07260A34E1B21E238F
:100440000F22AD48009602F069FCAEA31E220021E7
:10045000A94801F02EFC142328220521A648009566
:1004600002F017FCE1B21E232D22A348009602F0F1
:1004700010FCF8BD10B5044604F11E00C1B2A4A3DF
:100480001F229D4801F015FC04F11F00C2B2A1A378
:100490001E21994801F02BFCC4F11E00C1B29EA39D
:1004A0001F22954801F041FCC4F11F00C2B2BDE813
:1004B00010409BA31E21904801F055BCF8B504469E
:1004C000002299A311468C4801F0F3FBE01D37256B
:1004D000C1B228230A228848009501F040FF072670
:1004E00006EB4400C1B23C230A228348009501F088
:1004F00036FF04EB4400C01DC1B250230A227E48DF
:10050000009501F02CFF06EB8400C1B264230A229F
:100510007948009501F023FFF8BDF8B585A0006883
:100520000090002284A31146734801F0C2FB00250D
:100530000A27002405EB850007EB400604EB0510B5
:1005400020308DF80000C4EBC400C1B2F2B26B469B
:10055000694801F0AEFB641CE4B2102CEED36D1CB4
:10056000EDB2062DE5D3F8BDF8B572A00068009095
:10057000002275A31146604801F09BFB00250A2765
:10058000002405EB850007EB400604EB0510A030C6
:100590008DF80000C4EBC400C1B2F2B26B465648FD
:1005A00001F087FB641CE4B2102CEED36D1CEDB29D
:1005B000062DE5D3F8BD10B5FFF71EFF664800789D
:1005C000C108052919D2DFE801F003080D12150052
:1005D000BDE8104000F007001EE7BDE8104000F045
:1005E000070047E7BDE8104000F0070066E7BDE8F8
:1005F000104092E7BDE81040B6E710BD92B0574AF0
:1006000057493D4801F0E8FF06210B2000F0C3F8F0
:10061000044600210E2000F0BEF8054607210B20FD
:1006200000F0B9F8064604210B2000F0B4F80746A4
:1006300005210B2000F0AFF8804601210E2000F0CC
:10064000AAF8814607210D2000F0A5F88246062170
:100650000D2000F0A0F8119005210D2000F09BF86E
:10066000109004210D2000F096F80F9003210D202A
:1006700000F091F8834602210D2000F08CF80E90D6
:1006800001210D2000F087F80D9000210D2000F0D1
:1006900082F8CDE90876CDE90A5402461198CDE9F1
:1006A00005A90490CDF81C80DDE90F310E98CDE945
:1006B00001B3039100902A490F480D9B01F0FFFF01
:1006C000254C00254FF47A760B4802F058F8FFF7D6
:1006D00072FF094802F055F80028F8D12078401C34
:1006E000C0B22070282800D32570304600F04BF8A7
:1006F000EAE7000084300008480000206472617757
:10070000426F7800647261774672616D6500000027
:100710002030000020393000203138300000000047
:100720002032373000000000647261774C696E65DA
:10073000000000002000000041534349492070613F
:100740006765203100000000415343494920706132
:1007500067652032000000001400002079090008BD
:100760003C0000207047FEE7FEE7FEE7FEE770472B
:100770007047704770470000C0EBC00000E000BF4A
:10078000401EFCD270474FF47A714843F4E70120D1
:10079000F2E70A20F0E700010844C0B2704710B544
:1007A0000A2813D00B281BD00C2823D00D282BD0BF
:1007B0000E2833D00F283BD10121202000F083FCEC
:1007C000BDE81040FC49FD4800F0B2BA01210846DE
:1007D00000F079FCBDE81040F749F94800F0A8BAEC
:1007E0000121022000F06FFCBDE81040F249F548FD
:1007F00000F09EBA0121042000F065FCBDE8104025
:10080000ED49F14800F094BA0121082000F05BFCAA
:10081000BDE81040E849ED4800F08ABA01211020F7
:1008200000F051FCBDE81040E349E94800F080BA0F
:1008300010BD010900F00F00012202FA00F3DE48AA
:100840000360027100228271C27103224271084664
:10085000A5E730B4020900F00F00012303FA00F409
:10086000D548046000240471012905D0022905D06F
:10087000C47130BC104692E7C371FAE70221C1711E
:10088000F7E710B500F00F0301229A4092B2000979
:10089000CB4BCF4C00291FD00A280DD00B280DD0F0
:1008A0000C280FD00D2811D00E2813D00F2802D1FC
:1008B000C2481830028010BD1A8310BDC1481830DC
:1008C000028010BDC0481830028010BDBF481830EB
:1008D000028010BD228310BD0A280DD00B280DD038
:1008E0000C280FD00D2811D00E2813D00F28F2D1CC
:1008F000B2481A30028010BD5A8310BDB1481A3078
:10090000028010BDB0481A30028010BDAF481A30C6
:10091000028010BD628310BD00F00F0201219140E2
:1009200089B200090A280BD00B280DD00C2810D052
:100930000D2813D00E2816D00F2818D0012070478C
:100940009F480069084070479E4810300068084082
:1009500070479D4810300068084070479B48103031
:100960000068084070479A480069084070479348FB
:10097000103000680840704770B5064614461D46A2
:1009800008293DD2DFE801F03C043D436870FAFDE0
:100990000521304600F0AFFE0621304600F0ABFEE8
:1009A0000721304600F0A7FE0821304600F0A3FEE4
:1009B0000921304600F09FFE0A21304600F09BFEE0
:1009C0000B21304600F097FE0C21304600F093FEDC
:1009D0000421304600F08FFE0221304600F08BFEED
:1009E0000321304600F087FE0121304600F083FEEF
:1009F0000D21304600F07FFE0021304600F07BFEE6
:100A00001BE122460121304600F07DFE15E1012C5C
:100A10000CD0022C15D000220221304600F073FECB
:100A200000220321304600F06EFE06E10122022181
:100A3000304600F068FE00220321304600F063FEDD
:100A4000FBE000220221304600F05DFE012203217E
:100A5000304600F058FEF0E022460021304600F01B
:100A600052FEFFF796FEE8E01920FFF785FE04F03E
:100A700001020521304600F046FE04F00202062184
:100A8000304600F040FE04F004020721304600F03A
:100A90003AFE04F008020821304600F034FE04F06B
:100AA00010020921304600F02EFE04F020020A2137
:100AB000304600F028FE04F040020B21304600F0E2
:100AC00022FE04F080020C21304600F01CFE0122C0
:100AD0000421304600F017FEFFF759FE00220421E2
:100AE000304600F010FEA8E01920FFF745FE2878F8
:100AF000052100F00102304600F005FE28780621AD
:100B000000F00202304600F0FEFD2878072100F0D8
:100B10000402304600F0F7FD2878082100F00802B2
:100B2000304600F0F0FD2878092100F01002304630
:100B300000F0E9FD28780A2100F02002304600F09C
:100B4000E2FD28780B2100F04002304600F0DBFD8A
:100B500028780C2100F08002304600F0D4FD0122FC
:100B60000421304600F0CFFDFFF711FE00220421E2
:100B7000304600F0C8FD6D1C641EE4B2002CB3D1F9
:100B80005BE058E01920FFF7F7FD2878052100F019
:100B90000102304600F0B7FD2878062100F002027D
:100BA000304600F0B0FD2878072100F004023046FE
:100BB00000F0A9FD28780DE0180000200014024084
:100BC000000002400004024000080240000C024005
:100BD0000010024000F008020821304600F093FDAA
:100BE0002878092100F01002304600F08CFD2878AA
:100BF0000A2100F02002304600F085FD28780B2104
:100C000000F04002304600F07EFD28780C2100F014
:100C10008002304600F077FD01220421304600F0CA
:100C200072FDFFF7B4FD00220421304600F06BFD99
:100C30006D1C641EE4B2002CA4D1012070BD000024
:100C400010B57F49884209D10121084600F077FAA2
:100C50000021BDE81040012000F071BA79498842B6
:100C600009D10121022000F06AFA0021BDE81040FC
:100C7000022000F064BA7449884209D1012104209D
:100C800000F05DFA0021BDE81040042000F057BAE2
:100C90006E49884209D10121082000F050FA002154
:100CA000BDE81040082000F04ABA6949884209D1DD
:100CB0000121102000F043FA0021BDE8104010206F
:100CC00000F03DBA6349884209D10121202000F09B
:100CD00036FA0021BDE81040202000F030BA5E490D
:100CE000884209D10121402000F029FA0021BDE805
:100CF0001040402000F023BA5849884209D1012110
:100D0000802000F01CFA0021BDE81040802000F097
:100D100016BA534988420AD184150121204600F0B1
:100D20000EFA2046BDE81040002100F008BA10BDC0
:100D30002DE9F041002201274FF0030C07FA02F5DC
:100D40000B682B40AB422CD1066853000CFA03F41D
:100D5000A64306600E79D0F800809E4046EA080659
:100D600006600E79012E01D0022E12D18668A643AC
:100D700086604E79D0F808809E4046EA0806866074
:100D80004668AE43466045688E799640B6B23543B4
:100D90004560C568A543C560CC799C40C3681C43C9
:100DA000C460521C102AC9D3BDE8F0814FF6FF7110
:100DB00001600021017141718171C171704708B5F5
:100DC00041F480320092009AC261C1610099C16110
:100DD000C169C069009008BD0246002012690A423C
:100DE00000D001207047006980B2704702460020A1
:100DF00052690A4200D001207047406980B27047B2
:100E00000183704741837047002A01D001837047F6
:100E1000418370474161704742694A40426170476F
:100E200010B54B07DB0E9A40C90800EB8100016A40
:100E30000F249C40A1430162016A1143016210BD6D
:100E4000000002400004024000080240000C024082
:100E5000001002400014024000180240001C024032
:100E600000200240F848016841F001010160F64AA3
:100E70000021083211600268F44B1A400260031D21
:100E8000F34A1A60026822F480220260EE480C30B5
:100E900001607047EC490022891C0A700870704795
:100EA00002460020510901290CD002290DD0E64943
:100EB0007431096802F01F02012393400B4200D0F5
:100EC00001207047E0490968F4E7DF49703109689B
:100ED000F0E718B5002000904FF4A0643120FFF730
:100EE000DFFF0099491C00910099A14201D0002820
:100EF000F4D03120FFF7D4FF08B1012018BD002045
:100F000018BDD14A116821F0F80141EAC000106013
:100F10007047D04908607047CB49002270310A7091
:100F20000A70012804D0042801D1052008707047F8
:100F3000012008707047C8490860704710B5029CCE
:100F400041EA82114FF0FF3202EB530241EA0241C3
:100F5000014341EA0460BC49091D086010BDBD4958
:100F600008667047800140EA0170B7498431086023
:100F70007047B84988667047B649C8647047B24B35
:100F800008331A6822F0EC62084310431860704777
:100F9000AD4B08331A6822F07842084310431860BA
:100FA0007047A94A0832116821F00301014311601A
:100FB0007047A5480830006800F00C007047A24A4E
:100FC0000832116821F0F0010143116070479E4A18
:100FD0000832116821F4E0510143116070479A4AC8
:100FE0000832116821F4604141EAC0001060704786
:100FF00070B5954B0833196801F00C01974C002926
:101000001ED0661004291DD008291DD0046019685F
:1010100001F0F0010909924A545C0168E140416025
:101020001C6804F4E054A40A145D21FA04F48460FA
:101030001B6803F460435B0BD25CD140C16070BDA0
:101040000460E4E70660E2E77F4A121D1168C1F31D
:101050008055116801F03F0135B1B6FBF1F114681C
:10106000C4F38814614305E0B4FBF1F11468C4F3E0
:10107000881461431268C2F30142521C5200B1FB52
:10108000F2F10160C3E7C0F30121032908D16E4BDF
:101090000833196821F4F8127249014011431960AC
:1010A000694A70321168C0F30B0001431160704748
:1010B000694944390860704767494039086070479A
:1010C000694908607047604A3032002903D01168CE
:1010D00001431160704711688143116070475A4A9B
:1010E0003432002903D01168014311607047116840
:1010F000814311607047544A3832002903D0116887
:1011000001431160704711688143116070474E4A76
:101110004032002903D01168014311607047116803
:10112000814311607047484A4432002903D0116856
:101130000143116070471168814311607047424A52
:101140001032002903D01168014311607047116803
:101150008143116070473C4A1432002903D0116862
:101160000143116070471168814311607047364A2E
:101170001832002903D011680143116070471168CB
:10118000814311607047304A2032002903D0116832
:1011900001431160704711688143116070472A4A0A
:1011A0002432002903D0116801431160704711688F
:1011B000814311607047244A5032002903D01168DE
:1011C00001431160704711688143116070471E4AE6
:1011D0005432002903D0116801431160704711682F
:1011E000814311607047184A5832002903D01168B2
:1011F0000143116070471168814311607047124AC2
:101200006032002903D011680143116070471168F2
:101210008143116070470C4A6432002903D0116881
:101220000143116070471168814311607047064A9D
:101230000D32002903D011780143117070471178E5
:10124000814311707047000000380240FFFFF6FE36
:101250001030002400004742800E47420024F40072
:1012600020000020FFFCFF0F5C0147420948016895
:1012700041F080710160E5E701460020054A683AC7
:1012800012680A42DED00120DCE7024966390870A4
:10129000D8E70000743802402DE9FF4F83B00C46B8
:1012A000DDE9107815461E4606EB0400029006EBB9
:1012B00005005FEAC871A7EB0509A7EB040A0190D6
:1012C0000DD0029809F0FF02C1B2039801F070FA44
:1012D00001980AF0FF02C1B2039801F069FAA6EB87
:1012E000040B5FEA8870A6EB05060CD509F0FF0237
:1012F0000BF0FF01039801F05BFA0AF0FF02F1B274
:10130000039801F055FA5FEA08703D443C440BD560
:101310000298EAB2C1B2039801F04AFA0198E2B227
:10132000C1B2039801F044FA5FEA48700DD5EAB201
:101330000BF0FF01039801F03BFA039807B0E2B20B
:10134000F1B2BDE8F04F01F033BA07B0BDE8F08F5D
:101350002DE9FF4F83B08B46DDF840A09146C3F1E5
:10136000010044B20127584240004FFA80F800269D
:101370001D46CDE9009A5B462A4631460398FFF7A1
:101380008BFF18E0002C08DB6D1EEDB208F102089F
:101390004FFA88F804EB080044B2761CF6B2BF1C82
:1013A0007FB2E01944B2CDE9009A5B462A46314645
:1013B0000398FFF771FFAE42E4D3C6E72DE9F84387
:1013C0008046089F0D46164699464B465B1C5806BC
:1013D000040EF01AC2B2E81AC1B223464046009485
:1013E00000F0D8F8002806D04B4632462946404641
:1013F0000097FFF7ADFFBDE8F8832DE9FF4F83B0FD
:101400000E46DDF844901746984610985FEAC97179
:10141000A0EB070AA0EB0600029008EB070008EB20
:10142000060B07F1010406F1010501900FD0E3B2AC
:101430000AF0FF020BF0FF01039801F013FC029881
:10144000EBB2C2B20198C1B2039801F00BFC5FEAA3
:101450008970A8EB0606A8EB07070DD5E3B20AF0E2
:10146000FF02F1B2039801F0FDFB0298EBB2C2B2A9
:10147000F9B2039801F0F6FB5FEA09700DD5E3B20B
:101480000BF0FF01109A039801F0ECFB0198EBB20E
:10149000C1B2109A039801F0E5FB5FEA49700ED5DE
:1014A000E3B2F1B2109A039801F0DCFB109A0398B2
:1014B00007B0EBB2F9B2BDE8F04F01F0D3BB44E79F
:1014C0002DE9FF4F83B08B46DDF840A09146C3F174
:1014D000010044B20127584240004FFA80F800262C
:1014E0001D46CDE9009A5B462A4631460398FFF730
:1014F00084FF18E0002C08DB6D1EEDB208F1020835
:101500004FFA88F804EB080044B2761CF6B2BF1C10
:101510007FB2E01944B2CDE9009A5B462A463146D3
:101520000398FFF76AFFAE42E4D30EE72DE9F843D4
:101530008046089F0D46164699464B465B1C58064A
:10154000040EF01AC2B2E81AC1B223464046009413
:1015500000F020F8002806D04B4632462946404687
:101560000097FFF7ADFF46E78A4209D8834201D3CF
:10157000012070479A4201D901207047002070472E
:10158000834205D39A4201D9012070470020704759
:101590000020704770B5044604980D461E4610445E
:1015A000401EC3B294F84B1094F84900FFF7DCFFDB
:1015B00050B1A819401EC3B204F148042A46A178CC
:1015C0002078BDE87040CFE7002070BD30B48C6853
:1015D0000023A44630BC0121604730B48C6800234E
:1015E000A44630BC1A461946604730B48C680023C4
:1015F000A44630BC0321604730B48C680023A44665
:1016000030BC1A460421604730B48C680023A446DD
:10161000012230BC0421604730B48C680023A4460A
:1016200030BC0221604730B48C680023A44630BC33
:101630000521604730B48C680621A44630BC604761
:1016400030B48C680721A44630BC60472DE9F041D6
:101650000746884616460025347875B1FF2C19D008
:10166000FE2C1FD0F02C43D2E02C1DD304F00F022F
:1016700041463846FFF7D0FF3AE0FF2C08D022461B
:1016800041463846FFF7CFFF98BB0020BDE8F08108
:1016900001252EE0224641463846FFF7C4FFF8B93F
:1016A0000020F3E70120F1E7D02C06D304F00F026D
:1016B00041463846FFF799FF1AE0C02C11D3414646
:1016C0003846FFF799FF2001801CC4B22046FFF77F
:1016D0005AF841463846FFF797FF2046FFF753F880
:1016E00006E0BE2C04D27F2C02D82046FFF74BF830
:1016F0000025761CB0E7084490F83400FF2801D09C
:10170000FFF797B87047084490F83400FF2802D0DC
:101710001146FFF7B6B870470120704708440078BB
:101720007047084401784FF6FF7202EA01214078C1
:10173000084480B270470021F0E710B5FFF7FBFFC7
:1017400028B1012805D0022805D0032010BD0620AD
:1017500010BD032010BD062010BD0121DEE70221CF
:10176000DCE710B50321FFF7D9FF40B210BD10B57B
:101770000421FFF7D3FF40B210BD0521CEE70621BB
:10178000CFE70821CDE70A21C8E70B21C6E710B54E
:101790000C21FFF7C3FF40B210BD10B50D21FFF7BC
:1017A000BDFF40B210BD10B50E21FFF7B7FF40B22C
:1017B00010BD10B50F21FFF7B1FF40B210BD10B53D
:1017C0001021FFF7ABFF40B210BD10B50C46FFF77C
:1017D000B4FF204410BD2DE9F04707463C4638468B
:1017E000FFF7A9FF81463846FFF7A7FF8046FF268F
:1017F0003846FFF7C8FF05463846FFF7C6FF0146E3
:10180000B9F1010F00D10F2611342078FF2809D03B
:10181000A0783040204400EB08048D4204D1E01B46
:10182000BDE8F087641CF8E76D1CEDB2EDE7806859
:1018300093E7806893E7806893E7806897E780681C
:101840009BE770B504460D46A068FFF774FF98B19A
:10185000022811D0287800F00F01891EA177000915
:101860006077687800F00F0184F820100009E077B5
:10187000A8780009207770BD2878E077687884F828
:101880002000E8782077287960776879A07770BDA4
:1018900000210177C17780F8201041778177704768
:1018A0002DE9F04706460F46B4682046FFF743FF90
:1018B0000546B068FFF741FF82464FF0FF09012D52
:1018C00001D14FF00F09B068FFF75DFF0546B06822
:1018D000FFF75BFF8046B068FFF753FF612F03D32C
:1018E00010B10444612509E0B068FFF748FF412FBB
:1018F00003D310B10444412500E01134474504D915
:101900003046FFF7C5FF00208AE7454517D8207805
:10191000FF2807D0BD4207D121463046FFF791FF8F
:1019200020467DE7641C05E0A07800EA0900204419
:1019300000EB0A04454502D06D1CEDB2E7E73046E6
:10194000FFF7A6FF00206BE710B5FFF7A9FF08B16E
:10195000012010BD002010BD10B504462046FFF741
:101960009FFF10B194F91C0010BD002010BD2DE99F
:10197000FF4F0C4681B00746904619463846FFF7A0
:101980008FFF014629B3B868FFF71FFF0546FE7FAA
:1019900097F820A0787F2044C0B20290B87FA8EBCF
:1019A0000000401EC0B2A0EB0A04601CC2B2334665
:1019B000CDF800A038460299FFF7ECFD68B1F61D9E
:1019C000F0B24FEAD00B641C04F0FF094FF000089E
:1019D00020E0002005B0BDE8F08F97F91C00F9E782
:1019E000029E00240CE02878009000234A463146ED
:1019F000384600F0E4FE6D1C0836F6B2641CE4B212
:101A00005C45F0D309F1010909F0FF0908F101086B
:101A100008F0FF08D045E3D397F91C00DAE72DE979
:101A2000F04104460E4690461F46656A2046A84788
:101A30004044C2B23B4631462046BDE8F04196E7FD
:101A40002DE9FF4F0E4681B00746904619463846AD
:101A5000FFF726FF014611B3B868FFF7B6FE05464B
:101A6000FC7F97F820A0B87F3044401CC6B2787F36
:101A70004044C0B203905346009431463846039A1E
:101A8000FFF788FD68B1E41DE0B24FEAD00B06EB2A
:101A90000A00401E00F0FF094FF000081EE0002081
:101AA00098E797F91C0095E7039E00240CE028783E
:101AB0000090012332464946384600F080FE6D1CF6
:101AC0000836F6B2641CE4B25C45F0D3A9F1010912
:101AD00009F0FF0908F1010808F0FF08D045E3D339
:101AE00097F91C0076E72DE9F04104468846164632
:101AF0001F46656A2046A847A8EB0000C1B23B46D6
:101B000032462046BDE8F0419AE72DE9FC5F884661
:101B10000746164619463846FFF7C2FE014639B356
:101B2000B868FFF752FE0546FC7F97F820A0787F43
:101B3000A8EB000000F0FF0BB87F3044401CC6B299
:101B4000ABEB0400401CC1B2234632463846CDF808
:101B500000A0FFF71FFD70B1E41DE0B2C0080190C6
:101B600006EB0A00401E00F0FF094FF0000820E0DD
:101B70000020BDE8FC9F97F91C00FAE75E460024B0
:101B80000CE02878009002234A463146384600F09F
:101B900016FE6D1C083EF6B2641CE4B20198844245
:101BA000EFD3A9F1010909F0FF0908F1010808F0D4
:101BB000FF08D045E2D397F91C00DAE72DE9F041A0
:101BC00004460E4690461F46656A2046A847A8EB85
:101BD0000000C2B23B4631462046BDE8F04194E7E2
:101BE0002DE9FC5F88460746164619463846FFF73A
:101BF00057FE014639B3B868FFF7E7FD0546FC7F9D
:101C000097F820A0B87FA8EB0000401EC0B2797FF3
:101C1000711A01F0FF0BABEB0401491CA0EB0A06A3
:101C2000CAB2701CC1B2534638460094FFF7B2FCEA
:101C300058B1E41DE0B2C0080190761C06F0FF091F
:101C40004FF000081FE0002093E797F91C0090E791
:101C50005E4600240CE02878009003233246494673
:101C6000384600F0ACFD6D1C083EF6B2641CE4B2D0
:101C700001988442EFD309F1010909F0FF0908F145
:101C8000010808F0FF08D045E2D397F91C0070E77F
:101C90002DE9F0410446884616461F46656A2046EF
:101CA000A8474044C1B23B4632462046BDE8F04119
:101CB00096E72DE9F04107460E4690461C46002562
:101CC000796A38468847404400F0FF0809E04246F8
:101CD00031463846FFF74BFE3118CEB22844C5B224
:101CE000641C2378002BF2D12846BDE8F0812DE951
:101CF000F0410746884616461C4600257A6A384653
:101D00009047A8EB000000F0FF0809E0324641468A
:101D10003846FFF795FE3118CEB22844C5B2641C90
:101D20002378002BF2D12846DFE72DE9F041074662
:101D30000E4690461C460025796A38468847A8EB2F
:101D4000000000F0FF0809E0424631463846FFF740
:101D5000DCFE311ACEB22844C5B2641C2378002BB5
:101D6000F2D12846C1E72DE9F041074688461646DC
:101D70001C4600257A6A38469047404400F0FF0828
:101D800009E0324641463846FFF72AFF311ACEB203
:101D90002844C5B2641C2378002BF2D12846A4E75E
:101DA00030B4029C002B08D0012B09D0022B0AD0A2
:101DB000032B0BD030BC00207047234630BC78E7A3
:101DC000234630BC93E7234630BCAEE7234630BC05
:101DD000C9E72DE9F04107460E4690461C4600250E
:101DE000796A38468847404400F0FF08237853B1A9
:101DF000424631463846FFF7BAFD3118CEB2284484
:101E0000C5B2641CF2E728466FE72DE9F0410746AA
:101E1000884616461C4600257A6A38469047A8EB45
:101E2000000000F0FF0809E0324641463846FFF75F
:101E30005AFE3118CEB22844C5B2641C2378002B58
:101E4000F2D1284651E72DE9F04107460E4690466B
:101E50001C460025796A38468847A8EB000000F048
:101E6000FF0809E0424631463846FFF7A7FE311A1F
:101E7000CEB22844C5B2641C2378002BF2D1284688
:101E800033E72DE9F0410746884616461C460025F3
:101E90007A6A38469047404400F0FF0809E032462D
:101EA00041463846FFF7F4FE311ACEB22844C5B297
:101EB000641C2378002BF2D1284616E72DE9F8435D
:101EC0000546089F0C4690461E462846FFF7B3FC81
:101ED000201AC4B22846FFF7B0FC4044C2B23346D1
:101EE000214628460097FFF75BFFBDE8F8832DE900
:101EF000F0410646069F0C4615463046FFF79BFC10
:101F0000201AC4B23046FFF798FC2844C2B23B46C0
:101F100021463046FFF72BFD0020E6E610B50446CB
:101F2000A06800281DD094F82810D9B1012923D029
:101F3000FFF733FC84F82900A068FFF734FC84F82D
:101F40002A0014F9290F94F90110401A80B2A178DF
:101F5000293C402903D0C0B2414388B2800984F8AB
:101F60002C0010BDFFF709FC84F82900A068FFF7DA
:101F70000EFC84F82A00E4E7FFF71BFC84F8290034
:101F8000A068FFF71CFC84F82A00DAE7002180F83B
:101F90002810C3E7012180F82810BFE7022180F84C
:101FA0002810BBE780F82B10B8E700207047AFF28D
:101FB00005014162704790F82A007047AFF20901AD
:101FC0004162704790F82900401CC0B27047AFF2E0
:101FD0000B014162704710F8292F4178501A40B226
:101FE00000EBD07040100844C0B27047AFF2190146
:101FF0004162704700787047007870472DE9F041E2
:1020000005460F46164600243846B0478046B8F1CC
:10201000000F15D041462846FFF742FC687F40423A
:10202000C4B27F1C3846B04760B1287F2044C4B298
:102030003846B047804641462846FFF731FCF0E776
:10204000204652E6B8F1200F05D0E87F2044697F92
:102050000844C0B249E6287F2044C0B245E6AFF24A
:102060006B02CBE7AFF26F02C8E710B50446097800
:102070002046FFF715FC94F91D0010BD10B504466D
:1020800009782046FFF70CFC94F91D0010BD70B5CF
:1020900006460C460025217839B13046FFF700FC92
:1020A000307F2844C5B2641CF5E7284670BD70B582
:1020B00006460C460025217839B13046FFF7F0FB83
:1020C000307F2844C5B2641CF5E7284670BD70B562
:1020D00005460E46144600202071317800292AD08A
:1020E0007F2020708020607031782846FFF7D8FB71
:1020F000687F40422071687FA070A87FE07095F9EA
:102100001E0094F90010814200DD207095F8201027
:10211000084440B294F90110814200DA6070761CE4
:10212000307868B12079297F0844207131782846B9
:10213000FFF7B6FBE3E720706070A070E07070BD41
:102140002079E97F08442071697F0844207170BDBF
:10215000BDE7704770472DE9F0478046DDE9087913
:102160000A9E14461D4609784046FFF799FB2878D9
:1021700098F81D1008442870207989F800003878F4
:102180006178401A3870607830702178401A307069
:10219000BDE8F0872DE9F04385B08046DDE90C56B7
:1021A0000C4691461F462078002810D003AA2146ED
:1021B0004046FFF78CFFCDE900754B4603AA214648
:1021C00040460296FFF7C7FF05B0BDE8F083002048
:1021D00028703070F8E72DE9F04786B00746DDE952
:1021E0000E5688469246994698F80000002819D065
:1021F000B868FFF7C2FA044604AA41463846FFF71A
:1022000066FF9DF91100A04201DA8DF81140CDE979
:102210000095534604AA414638460296FFF79BFFB5
:1022200006B0B5E7002028703070F9E710B5044615
:10223000A068884207D0A1602046FFF76FFE2046C5
:10224000BDE81040B3E610BD2DE9FF4F0C4681B04C
:102250000746904619463846FFF722FB014629B348
:10226000B868FFF7B2FA0546FE7F97F820A0787F9E
:102270002044C0B20290B87FA8EB0000401EC0B25C
:10228000A0EB0A04601CC2B23346CDF800A0384669
:102290000299FFF77FF958B1F61CF0B24FEA900BA4
:1022A000641C04F0FF094FF000081EE0002019E450
:1022B00097F91C0016E4029E00240CE02878009098
:1022C00000234A463146384600F084FA6D1C361D1C
:1022D000F6B2641CE4B25C45F0D309F1010909F0DF
:1022E000FF0908F1010808F0FF08D045E3D397F98A
:1022F0001C00DCE72DE9F04104460E4690461F46DF
:10230000656A2046A8474044C2B23B463146204653
:10231000BDE8F04198E72DE9F04107460E469046AA
:102320001C460025B868FFF706FA022801D00020F5
:10233000DBE4796A38468847404400F0FF0809E04A
:10234000424631463846FFF77FFF3118CEB2284467
:10235000C5B2641C2378002BF2D12846C5E42DE9D0
:10236000FF5F1D460E984FF00008A94202D94B1B93
:10237000DEB201E06B1ADEB2824202D9131ADFB27A
:1023800001E0831ADFB2B7420AD94FF001083346A1
:102390003E461F460B4611461A462B460546184632
:1023A000A94205D90B4629461D4613460246184642
:1023B0007408904202D94FF0010901E04FF0FF3953
:1023C00092468B4615E0B8F1000F16D05A4651469A
:1023D000009800F0EDF9E01B44B2002C05DA0AEB9E
:1023E000090000F0FF0AA01944B20BF1010B0BF039
:1023F000FF0BAB45E7D9BDE8FF9F52465946009811
:1024000000F0D6F9E7E7000030B40C68A44630BC11
:10241000604770B504460D46626C02209047002369
:102420000A2229462046FFF7EFFF0546616C03208C
:102430008847616C00208847284670BD70B5044607
:102440000D46626C02209047626C01209047002389
:10245000142229462046FFF7D7FF04F1480317222C
:1024600029462046FFF7D0FF616CBDE87040002090
:10247000084770B504460E46626C02209047626CB5
:10248000012090470023152231462046FFF7BCFF6C
:10249000054635B104F14803172231462046FFF7BF
:1024A000B3FF616C00208847284670BD07B502ABBA
:1024B0000F22FFF7A9FF0EBD30B41C4600F12D031B
:1024C0001A705C7030BC32229EE7F0B41E46DDE923
:1024D000045400F12D031A705E70DD709C70F0BC26
:1024E0003B2291E7F0B41E46DDE9045400F12D03D0
:1024F0001A705E70DD709C70F0BC2D2284E708B508
:102500006B464622FFF780FF9DF8000008BD08B526
:102510006B464722FFF778FF9DF8000008BD0023B7
:10252000482271E710B5044620466168FFF7E7FFCF
:10253000207020466168FFF7EAFF607020466168FE
:10254000FFF7EDFFE07404F1480320466168BDE841
:102550001040172258E780F83110704770B50446D4
:102560000025A560E5606574012626742220A0740C
:10257000A5610020FF21221882F83410401CC0B24F
:102580000E28F8D301212046FFF7E5FF2046FFF78C
:102590000EFD04F8286F6570A5704020E07025716D
:1025A000D048E06170BD10B5044620466168FFF771
:1025B00030FF20B12046FFF7B5FF012010BD0020FD
:1025C00010BD70B504460D462046FFF7C7FF656095
:1025D0002046BDE87040E6E72DE9F04104460E468E
:1025E00017462046FFF7BAFF0023FE25E01880F8C3
:1025F00034505B1CDBB20E2BF8D36660B76020460C
:10260000BDE8F041CFE72DE9F0470446DDE9099A3E
:10261000DDF820800D4616461F462046FFF79EFF38
:10262000656084F8386084F8397084F8368084F8FE
:10263000359084F834A02046BDE8F047B3E72DE993
:10264000F0410446DDF818800D4616461F46204628
:10265000FFF784FF656084F8366084F8357084F88D
:1026600034802046BDE8F0419DE770B504460D4634
:1026700016462046FFF772FF656084F83F602046EB
:10268000BDE870408FE72DE9F0470446DDE9099A7F
:10269000DDF820800D4616461F462046FFF75EFFF8
:1026A000656084F8386084F8367084F8358084F882
:1026B000419084F834A02046BDE8F04773E72DE947
:1026C000F05F0446DDE90CABDDE90A890D461646EC
:1026D0001F462046FFF742FF04F1220444F81E5C27
:1026E000E675277684F8198084F81A9084F81BA080
:1026F00084F81CB00E9860770F98A0771098A0759A
:1027000011982075129860751398E0741498E0770A
:102710001598A074A4F122042046BDE8F05F42E7BA
:102720002DE9F05F0446DDE90CABDDE90A890D46D1
:1027300016461F462046FFF711FF04F1220444F815
:102740001E5CE675277684F8198084F81A9084F860
:102750001BA084F81CB00E9860770F98A077109893
:1027600020751198E0741298E0771398A07514986A
:10277000A074A4F122042046BDE8F05F13E741688D
:102780005CE610B50446A169002901D020468847BF
:1027900020466168BDE810406BE60A46416885E660
:1027A0000023102241682FE60023112241682BE606
:1027B00030B40C4613462246416830BC7CE61CB55A
:1027C0000C460499CDE90031134622464168FFF7D3
:1027D0007CFE1CBD1CB50C460499CDE900311346A6
:1027E00022464168FFF77EFE1CBD38B5049C8DF87B
:1027F00000108DF801208DF802308DF803406B46F3
:102800003C224168FFF700FE38BD00F8311F090A7D
:102810004170704710B521F007049108DA0842EAC8
:10282000411200F8312FC1F3C2010C43447010BDB6
:1028300010B4C47C282C07D0302C10D000F8311FE5
:102840004270837010BC704701F0E00102F0E002BA
:10285000D4089A092143114380F83110F2E710BCE3
:10286000D8E790F831007047C07C282803D00228B0
:1028700003D001207047FF2070470320704700B548
:102880000246D07C302807D01046FFF7EDFF014606
:1028900010465DF804EB5EE6FF2002F8310F507041
:1028A00000BD0020704700B502461046FFF7F9FF53
:1028B000014610465DF804EB4DE6C07C282803D0A5
:1028C000022803D0012070476D2070470120704717
:1028D00000B502461046FFF7F0FF014610465DF8CE
:1028E00004EB38E61D2F0008002282700178491E93
:1028F000C170027170470170427000210171F3E7ED
:10290000817803781944C9B281704278914201D329
:10291000002070470179491C0171C1781944C9B27E
:102920008A4201D8521ED1B2C1700120704781681D
:1029300040790844002201F8012B8142FBD1704705
:10294000C3788B4201D3012300E0002380789042BA
:1029500001D8012000E00020914201D9012100E0CE
:10296000002103EA00020840194002430A4302F032
:10297000010070474079884201D2012100E0002126
:10298000904201D2012000E0002011B108B10020E6
:1029900070470120704730B505460C466178E078F5
:1029A0004218521ED2B22846FFF7CAFF40B1217822
:1029B000A0784218521ED2B22846BDE83040D9E76E
:1029C000002030BD00220A7082784A704279521E7F
:1029D0008A70C078C87070470B4659780A46DB7811
:1029E000002B0BD0012B04D0022B07D0032B05D1D9
:1029F00002E00832D2B201E00839C9B2A0E730B42F
:102A00000C46114642798368204630BCFEF712BE60
:102A100081604271FFF78BBF30B585688478121BE7
:102A2000012402F007029440E2B26C188068002B87
:102A3000405C02D01043207030BDD143084020706C
:102A400030BD10B44A7883789A420AD3C3789A4248
:102A500007D80C7843799C4203D20B79214610BCED
:102A6000DAE710BC704770B506460C46A578280614
:102A700003D521463046FFF7E4FFE17831B1012963
:102A800008D002290AD003290FD10BE02178491C74
:102A900021700AE06178491C617006E02178491EC6
:102AA000217002E06178491E61706806050E002DF4
:102AB000DDD170BD2DE9F04180460C46A578002699
:102AC0000027E178002906D0012906D0022906D086
:102AD000032907D105E0012604E0012702E0FF26D3
:102AE00000E0FF27280603D521464046FFF7A9FF4F
:102AF0002078811921706078384460706806050E6E
:102B0000002DEFD1BDE8F08170B51D464C683B2A21
:102B100017D00EDC152A2AD006DC0A2A3BD00B2A55
:102B200039D0142A37D11BE0172A2AD0322A32D1C1
:102B300011E0462A2AD02EDD472A2AD0482A2AD157
:102B40002BE029462046FFF747FF08B329462046D9
:102B5000FFF7B0FF1FE029462046FFF772FF1AE09B
:102B60002046FFF7E4FE2046FFF7BEFE13E02046B6
:102B7000FFF7C6FE18B12046FFF7D9FE0BE0002094
:102B800070BD29462046FFF71DFF04E060792870DC
:102B900001E060782870012070BD012070BD2DE932
:102BA000F84307460D4690461C46FF260AE00023E0
:102BB0004246294638460096FFF701FE083CE4B23B
:102BC0000835EDB2082CF2D2002C0CD0E043401CAA
:102BD00000F007008640F0B20090002342462946EC
:102BE0003846FFF7ECFDBDE8F8832DE9F8430746CA
:102BF000884615461C46FF260AE001232A46414620
:102C000038460096FFF7DBFD083CE4B20835EDB22C
:102C1000082CF2D2002CE6D0E043401C00F0070064
:102C20008640F0B2009001232A4641463846FFF71D
:102C3000C6FDD8E7F8B504460D4616461F460120E6
:102C400000903B46324629462046FEF7A3FC00286A
:102C500007D001B03B46324629462046BDE8F04049
:102C60009DE7F8BDF8B505460E4617461C460123FC
:102C70003A46314628460094FEF78CFC002807D0DF
:102C800001B023463A4631462846BDE8F040ACE75D
:102C9000F8BD2DE9F8430746089D0C4690461E46B0
:102CA00033464246214638460095FEF773FC00281D
:102CB00099D03346424621463846FFF770FF2B46EF
:102CC000424621463846FFF790FFA119491EC9B276
:102CD0002B4642463846FFF788FF08EB0501491EA0
:102CE000CAB201B0334621463846BDE8F04356E744
:102CF00079E72DE9F0410646069C0F4615469846B1
:102D000043462A4639463046FFF749FF6D1CEDB26F
:102D1000641EE4B2002CF3D1BDE8F0812DE9F84344
:102D20000546089C0E461746984643463A463146A5
:102D300028460094FEF72EFC002806D043463A466B
:102D4000314628460094FFF7D4FF4CE72DE9FF4FAA
:102D500083B00E46DDE9104B17461D462B463A461A
:102D6000314600940398FEF715FC002867D006EB67
:102D70000B0000F0FF0807EB0B0000F0FF097019D3
:102D8000A0EB0B00401EC0B202903819A0EB0B0064
:102D9000401E00F0FF0A022000905B464A46414672
:102DA0000398FEF7D5FA01200090DDE902105B469A
:102DB0004A46FEF7CDFA042000905B465246414653
:102DC0000398FEF7C5FA08200090DDE902105B4683
:102DD0005246FEF7BDFAA5EB0B00A0EB0B00801EE0
:102DE00000F0FF0AA4EB0B00A0EB0B00801E00F02C
:102DF000FF0B08F1010808F0FF0809F1010909F0CB
:102E0000FF09641E6D1E53463A4641460398FFF77C
:102E1000C6FE3819C2B2534641460398FFF7BFFEBB
:102E20005B464A4631460398FFF7DFFE7019C1B290
:102E3000039807B05B464A46BDE8F04FD5E607B0B9
:102E4000BDE8F08F2DE9FF4F83B00E46DDE9105449
:102E50001746984643463A46314600950398FEF792
:102E600099FB0028EBD0301900F0FF09381900F069
:102E7000FF0A06EB0800001B401E00F0FF0B78194C
:102E8000001B401EC0B20290022000902346524612
:102E900049460398FEF714FB012000902346524652
:102EA00059460398FEF70CFB04200090DDE9022050
:102EB00023464946FEF704FB08200090DDE9022086
:102EC00023465946FEF7FCFAA8EB0400001B801EBF
:102ED00000F0FF0B281B001B801EC5B209F1010981
:102EE00009F0FF090AF1010A0AF0FF0A641CE4B2C2
:102EF0005B463A46494600940398FFF7FAFEDDE93F
:102F000002205B4600944946FFF7F3FE43465246D3
:102F1000314600950398FFF7ECFE90E77047416457
:102F200003200847704700002DE9F04107460E4690
:102F3000154698460A2D04D00B2D5BD0152D59D17E
:102F40000AE0FF2231463846FEF740FB2D4A314663
:102F50003846FEF77BFB4DE0746800223146384668
:102F6000FEF75AFB022231463846FEF73EFB207937
:102F7000314640F0B8023846FEF755FB4022314654
:102F80003846FEF750FB012231463846FEF744FB37
:102F9000402231463846A368FEF74CFB00223146FA
:102FA0003846FEF722FB002231463846FEF734FB56
:102FB000012231463846FEF718FB2079314640F0B1
:102FC000B8023846FEF72FFB402231463846FEF75E
:102FD0002AFB012231463846FEF71EFBA368402239
:102FE000403331463846FEF725FB0022314638464D
:102FF000FEF7FBFA43462A4631463846BDE8F04123
:10300000FFF782BDCE37000870477047704775469E
:1030100000F028F8AE4605006946534620F0070048
:10302000854618B020B5FDF70DF9BDE820404FF0FA
:1030300000064FF000074FF000084FF0000B21F0A2
:103040000701AC46ACE8C009ACE8C009ACE8C0096F
:10305000ACE8C0098D4670470446AFF300802046B7
:10306000FDF7DBF8004870471401002001491820E3
:10307000ABBEFEE72600020070474FF04070E1EE65
:10308000100A704701060A00FE070136026820FF99
:10309000FE08FE07FE0A006022176780808080809D
:1030A0000080163363A0A0A00257675050F850F874
:1030B00050500257672070A0702870200257674850
:1030C000A8502050A89002576740A0A040A8906840
:1030D00026136380808012376720408080804020E4
:1030E000123767804020202040800355658850F8C3
:1030F00050880355652020F82020113363604080FC
:10310000055161F811336340E04002576708081029
:1031100020408080025767205088888850200257BE
:10312000672060A0202020F8025767708808304090
:1031300080F8025767F80810300888700257671047
:10314000305090F81010025767F880B0C8088870A7
:10315000025767304080B0C88870025767F808107F
:103160001020404002576770888870888870025726
:10317000677088986808106011376740E040004029
:10318000E04011376740E040006040801247671020
:10319000204080402010045363F800F812476780F5
:1031A00040201020408002576770881020200020A7
:1031B000025767708898A8B08070025767205088BF
:1031C00088F88888025767F04848704848F00257E6
:1031D0006770888080808870025767F04848484848
:1031E00048F0025767F88080F08080F8025767F84F
:1031F0008080F08080800257677088808098887017
:10320000025767888888F8888888123767E04040C6
:10321000404040E00257673810101010906002578D
:10322000678890A0C0A090880257678080808080C7
:1032300080F80257678888D8A888888802576788E6
:1032400088C8A89888880257677088888888887096
:10325000025767F08888F0808080015868708888FD
:103260008888A87008025767F08888F0A0908802C4
:10327000576770888070088870025767F820202090
:1032800020202002576788888888888870025767BE
:1032900088888850505020025767888888A8A8D806
:1032A0008802576788885020508888025767888826
:1032B0005020202020025767F80810204080F81284
:1032C0003767E08080808080E00257678080402000
:1032D000100808123767E02020202020E006536302
:1032E000205088015161F8282262804002556570A3
:1032F000087888780257678080B0C888C8B00255BF
:103300006570888088700257670808689888986890
:103310000255657088F88070025767304840F04069
:10332000404000576778888878088870025767801F
:1033300080B0C88888881237674000C0404040E0AD
:10334000104969100030101010909060025767808B
:10335000808890E09088123767C04040404040E04D
:10336000025565D0A8A8A888025565B0C888888885
:103370000255657088888870005767B0C888C8B0E3
:10338000808000576768988898680808025565B07B
:10339000C880808002556570807008F002576740D1
:1033A00040F040404830025565888888986802554A
:1033B0006588885050200255658888A8A850025515
:1033C00065885020508800576788889868088870FA
:1033D000025565F8102040F8124767304020C020A1
:1033E000403022176780808080808080124767C0CD
:1033F0002040304020C006536348A890FFFFFFFFE5
:10340000FFFFFFFFFFFFFFFFFFFFFFFFFFFFFFFFCC
:10341000FFFFFFFFFFFFFFFFFFFFFFFFFF0A00604F
:10342000221767800080808080800157672078A005
:10343000A0A07820025767304840E04048B00255CD
:1034400065887050708801586888885020F820205E
:1034500020221767808080008080800158687080FB
:10346000E09048380870193161A00257677088A849
:10347000C8A888701346667090B05000F002656569
:103480002448904824144262F010154161F002571C
:10349000677088E8C8C88870095161F816336340BE
:1034A000A0400256662020F82020F815456560905F
:1034B0002040F0154565E0106010E0282262408051
:1034C000015666888888C8B08002576778E8E8683F
:1034D000282828251161802022624080153565400A
:1034E000C04040E01346666090906000F002656561
:1034F000904824489001696940C04040E40C143C65
:103500000401696940C04040E81404081C0159697D
:10351000C0204020C81828780802576720002020C3
:103520004088700258684020708888F8888802585F
:10353000681020708888F888880258682050708841
:1035400088F8888802586848B0708888F8888802A7
:1035500058685000708888F8888802586820507031
:103560008888F888880267673C50909CF0909C009F
:10357000596970888080808870204002586840F8BF
:103580008080F08080F802586810F88080F0808099
:10359000F802586820F88080F08080F8025868505F
:1035A000F88080F08080F81238688040E040404029
:1035B00040E01238682040E040404040E012386867
:1035C00040A0E040404040E0123868A000E04040A9
:1035D0004040E0025767F04848E84848F002586821
:1035E000285088C8A8988888025868402070888821
:1035F00088887002586810207088888888700258FF
:1036000068205070888888887002586828507088B0
:10361000888888700258685000708888888870028E
:1036200055658850205088025767709898A8C8C878
:10363000700258684020888888888870025868100E
:103640002088888888887002586820500088888878
:103650008870025868500088888888887002586886
:10366000102088885020202002576780F088F08042
:103670008080025767708890A09088B00258684098
:103680002000700878887802586810200070087848
:103690008878025868205000700878887802586846
:1036A00028500070087888780257675000700878B2
:1036B00088780258682050207008788878026565FC
:1036C00078147C907C005767708880887020400256
:1036D00058684020007088F88070025868102000F8
:1036E0007088F880700258682050007088F88070E8
:1036F00002576750007088F8807012386880400068
:10370000C0404040E0123868408000C0404040E087
:1037100012386840A000C0404040E0123767A00067
:10372000C0404040E0025767C0307088888870020F
:103730005868285000B0C88888880258684020001F
:103740007088888870025868102000708888887097
:103750000258682050007088888870025868285085
:103760000070888888700257675000708888887059
:103770000355652000F800200255657898A8C8F028
:10378000025868402000888888986802586810208D
:10379000008888889868025868205000888888982F
:1037A0006802576750008888889868005969102017
:1037B0008888986808887000586880F0888888F041
:1037C0008080005969500088889868088870FFD008
:1037D000FFE0FFC1FFD13FC0FF14FFD23FC0FF1485
:1037E000FFD0FFFE04380008000000204800000061
:1037F000C40100084C3800084800002030070000D1
:10380000E0010008007A030A000000000000000048
:103810000102030406070809000000000000000080
:103820000000000000000000010203040102030484
:1038300006070809084000000080000094000020EE
:0C384000292F0008300000201917000894
:040000050800018965
:00000001FF
